{"abi":[{"type":"constructor","inputs":[{"name":"configFilePath","type":"string","internalType":"string"},{"name":"writeToFile","type":"bool","internalType":"bool"}],"stateMutability":"nonpayable"},{"type":"function","name":"get","inputs":[{"name":"key","type":"string","internalType":"string"}],"outputs":[{"name":"","type":"tuple","internalType":"struct Variable","components":[{"name":"ty","type":"tuple","internalType":"struct Type","components":[{"name":"kind","type":"uint8","internalType":"enum TypeKind"},{"name":"isArray","type":"bool","internalType":"bool"}]},{"name":"data","type":"bytes","internalType":"bytes"}]}],"stateMutability":"view"},{"type":"function","name":"get","inputs":[{"name":"chain_id","type":"uint256","internalType":"uint256"},{"name":"key","type":"string","internalType":"string"}],"outputs":[{"name":"","type":"tuple","internalType":"struct Variable","components":[{"name":"ty","type":"tuple","internalType":"struct Type","components":[{"name":"kind","type":"uint8","internalType":"enum TypeKind"},{"name":"isArray","type":"bool","internalType":"bool"}]},{"name":"data","type":"bytes","internalType":"bytes"}]}],"stateMutability":"view"},{"type":"function","name":"getChainIds","inputs":[],"outputs":[{"name":"","type":"uint256[]","internalType":"uint256[]"}],"stateMutability":"view"},{"type":"function","name":"getRpcUrl","inputs":[],"outputs":[{"name":"","type":"string","internalType":"string"}],"stateMutability":"view"},{"type":"function","name":"getRpcUrl","inputs":[{"name":"chainId","type":"uint256","internalType":"uint256"}],"outputs":[{"name":"","type":"string","internalType":"string"}],"stateMutability":"view"},{"type":"function","name":"resolveChainId","inputs":[{"name":"aliasOrId","type":"string","internalType":"string"}],"outputs":[{"name":"","type":"uint256","internalType":"uint256"}],"stateMutability":"view"},{"type":"function","name":"set","inputs":[{"name":"chainId","type":"uint256","internalType":"uint256"},{"name":"key","type":"string","internalType":"string"},{"name":"value","type":"int256","internalType":"int256"}],"outputs":[],"stateMutability":"nonpayable"},{"type":"function","name":"set","inputs":[{"name":"chainId","type":"uint256","internalType":"uint256"},{"name":"key","type":"string","internalType":"string"},{"name":"value","type":"bytes32[]","internalType":"bytes32[]"}],"outputs":[],"stateMutability":"nonpayable"},{"type":"function","name":"set","inputs":[{"name":"chainId","type":"uint256","internalType":"uint256"},{"name":"key","type":"string","internalType":"string"},{"name":"value","type":"uint256","internalType":"uint256"}],"outputs":[],"stateMutability":"nonpayable"},{"type":"function","name":"set","inputs":[{"name":"key","type":"string","internalType":"string"},{"name":"value","type":"bytes","internalType":"bytes"}],"outputs":[],"stateMutability":"nonpayable"},{"type":"function","name":"set","inputs":[{"name":"key","type":"string","internalType":"string"},{"name":"value","type":"bytes32","internalType":"bytes32"}],"outputs":[],"stateMutability":"nonpayable"},{"type":"function","name":"set","inputs":[{"name":"key","type":"string","internalType":"string"},{"name":"value","type":"int256","internalType":"int256"}],"outputs":[],"stateMutability":"nonpayable"},{"type":"function","name":"set","inputs":[{"name":"chainId","type":"uint256","internalType":"uint256"},{"name":"key","type":"string","internalType":"string"},{"name":"value","type":"bytes","internalType":"bytes"}],"outputs":[],"stateMutability":"nonpayable"},{"type":"function","name":"set","inputs":[{"name":"key","type":"string","internalType":"string"},{"name":"value","type":"string[]","internalType":"string[]"}],"outputs":[],"stateMutability":"nonpayable"},{"type":"function","name":"set","inputs":[{"name":"chainId","type":"uint256","internalType":"uint256"},{"name":"key","type":"string","internalType":"string"},{"name":"value","type":"address","internalType":"address"}],"outputs":[],"stateMutability":"nonpayable"},{"type":"function","name":"set","inputs":[{"name":"chainId","type":"uint256","internalType":"uint256"},{"name":"key","type":"string","internalType":"string"},{"name":"value","type":"address[]","internalType":"address[]"}],"outputs":[],"stateMutability":"nonpayable"},{"type":"function","name":"set","inputs":[{"name":"chainId","type":"uint256","internalType":"uint256"},{"name":"key","type":"string","internalType":"string"},{"name":"value","type":"string","internalType":"string"}],"outputs":[],"stateMutability":"nonpayable"},{"type":"function","name":"set","inputs":[{"name":"key","type":"string","internalType":"string"},{"name":"value","type":"uint256[]","internalType":"uint256[]"}],"outputs":[],"stateMutability":"nonpayable"},{"type":"function","name":"set","inputs":[{"name":"key","type":"string","internalType":"string"},{"name":"value","type":"address[]","internalType":"address[]"}],"outputs":[],"stateMutability":"nonpayable"},{"type":"function","name":"set","inputs":[{"name":"key","type":"string","internalType":"string"},{"name":"value","type":"uint256","internalType":"uint256"}],"outputs":[],"stateMutability":"nonpayable"},{"type":"function","name":"set","inputs":[{"name":"chainId","type":"uint256","internalType":"uint256"},{"name":"key","type":"string","internalType":"string"},{"name":"value","type":"int256[]","internalType":"int256[]"}],"outputs":[],"stateMutability":"nonpayable"},{"type":"function","name":"set","inputs":[{"name":"chainId","type":"uint256","internalType":"uint256"},{"name":"key","type":"string","internalType":"string"},{"name":"value","type":"bytes[]","internalType":"bytes[]"}],"outputs":[],"stateMutability":"nonpayable"},{"type":"function","name":"set","inputs":[{"name":"key","type":"string","internalType":"string"},{"name":"value","type":"address","internalType":"address"}],"outputs":[],"stateMutability":"nonpayable"},{"type":"function","name":"set","inputs":[{"name":"chainId","type":"uint256","internalType":"uint256"},{"name":"key","type":"string","internalType":"string"},{"name":"value","type":"bool","internalType":"bool"}],"outputs":[],"stateMutability":"nonpayable"},{"type":"function","name":"set","inputs":[{"name":"key","type":"string","internalType":"string"},{"name":"value","type":"bool","internalType":"bool"}],"outputs":[],"stateMutability":"nonpayable"},{"type":"function","name":"set","inputs":[{"name":"key","type":"string","internalType":"string"},{"name":"value","type":"bytes[]","internalType":"bytes[]"}],"outputs":[],"stateMutability":"nonpayable"},{"type":"function","name":"set","inputs":[{"name":"chainId","type":"uint256","internalType":"uint256"},{"name":"key","type":"string","internalType":"string"},{"name":"value","type":"bytes32","internalType":"bytes32"}],"outputs":[],"stateMutability":"nonpayable"},{"type":"function","name":"set","inputs":[{"name":"chainId","type":"uint256","internalType":"uint256"},{"name":"key","type":"string","internalType":"string"},{"name":"value","type":"string[]","internalType":"string[]"}],"outputs":[],"stateMutability":"nonpayable"},{"type":"function","name":"set","inputs":[{"name":"chainId","type":"uint256","internalType":"uint256"},{"name":"key","type":"string","internalType":"string"},{"name":"value","type":"uint256[]","internalType":"uint256[]"}],"outputs":[],"stateMutability":"nonpayable"},{"type":"function","name":"set","inputs":[{"name":"key","type":"string","internalType":"string"},{"name":"value","type":"int256[]","internalType":"int256[]"}],"outputs":[],"stateMutability":"nonpayable"},{"type":"function","name":"set","inputs":[{"name":"chainId","type":"uint256","internalType":"uint256"},{"name":"key","type":"string","internalType":"string"},{"name":"value","type":"bool[]","internalType":"bool[]"}],"outputs":[],"stateMutability":"nonpayable"},{"type":"function","name":"set","inputs":[{"name":"key","type":"string","internalType":"string"},{"name":"value","type":"bytes32[]","internalType":"bytes32[]"}],"outputs":[],"stateMutability":"nonpayable"},{"type":"function","name":"set","inputs":[{"name":"key","type":"string","internalType":"string"},{"name":"value","type":"string","internalType":"string"}],"outputs":[],"stateMutability":"nonpayable"},{"type":"function","name":"set","inputs":[{"name":"key","type":"string","internalType":"string"},{"name":"value","type":"bool[]","internalType":"bool[]"}],"outputs":[],"stateMutability":"nonpayable"},{"type":"function","name":"writeUpdatesBackToFile","inputs":[{"name":"enabled","type":"bool","internalType":"bool"}],"outputs":[],"stateMutability":"nonpayable"},{"type":"error","name":"AlreadyInitialized","inputs":[{"name":"key","type":"string","internalType":"string"}]},{"type":"error","name":"ChainNotInitialized","inputs":[{"name":"chainId","type":"uint256","internalType":"uint256"}]},{"type":"error","name":"InvalidChainKey","inputs":[{"name":"aliasOrId","type":"string","internalType":"string"}]},{"type":"error","name":"TypeMismatch","inputs":[{"name":"expected","type":"string","internalType":"string"},{"name":"actual","type":"string","internalType":"string"}]},{"type":"error","name":"UnableToParseVariable","inputs":[{"name":"key","type":"string","internalType":"string"}]},{"type":"error","name":"WriteToFileInForbiddenCtxt","inputs":[]}],"bytecode":{"object":"0x6080604052348015630000001257600080fd5b50604051630000b79b380380630000b79b8339818101604052810190630000003c91906300002df3565b80801563000000f057507f885cb69240a935d632d79c317109709ecfa91a80626ff3989d68f67f5b1dd12d60001c73ffffffffffffffffffffffffffffffffffffffff166364af255d60046040518263ffffffff1660e01b815260040163000000a791906300002eec565b602060405180830381865afa15801563000000c6573d6000803e3d6000fd5b505050506040513d601f19601f8201168201806040525081019063000000ee91906300002f0b565b155b156300000129576040517f2ebcd21800000000000000000000000000000000000000000000000000000000815260040160405180910390fd5b8160009081630000013c919063000031b7565b5080600560006101000a81548160ff02191690831515021790555060007f885cb69240a935d632d79c317109709ecfa91a80626ff3989d68f67f5b1dd12d60001c73ffffffffffffffffffffffffffffffffffffffff1663ddd2128d7f885cb69240a935d632d79c317109709ecfa91a80626ff3989d68f67f5b1dd12d60001c73ffffffffffffffffffffffffffffffffffffffff166360f9bb11866040518263ffffffff1660e01b815260040163000001f89190630000330d565b600060405180830381865afa1580156300000217573d6000803e3d6000fd5b505050506040513d6000823e3d601f19601f82011682018060405250810190630000024491906300003333565b6040518263ffffffff1660e01b815260040163000002649190630000330d565b6000604051808303816000875af11580156300000285573d6000803e3d6000fd5b505050506040513d6000823e3d601f19601f8201168201806040525081019063000002b291906300003333565b905060007f885cb69240a935d632d79c317109709ecfa91a80626ff3989d68f67f5b1dd12d60001c73ffffffffffffffffffffffffffffffffffffffff1663812a44b2836040518263ffffffff1660e01b81526004016300000316919063000033e0565b600060405180830381865afa1580156300000335573d6000803e3d6000fd5b505050506040513d6000823e3d601f19601f8201168201806040525081019063000003629190630000352f565b905060005b81518110156300000ab4576000828281518110630000038d57630000038c6300003588565b5b6020026020010151905060007f885cb69240a935d632d79c317109709ecfa91a80626ff3989d68f67f5b1dd12d60001c73ffffffffffffffffffffffffffffffffffffffff1663812a44b2868460405160200163000003ee91906300003625565b6040516020818303038152906040526040518363ffffffff1660e01b8152600401630000041e9291906300003653565b600060405180830381865afa158015630000043d573d6000803e3d6000fd5b505050506040513d6000823e3d601f19601f82011682018060405250810190630000046a9190630000352f565b5103630000047a57506300000a9b565b6000630000048f826300000ac060201b60201c565b905060018290806001815401808255809150506001900390600052602060002001600090919091909150908163000004c9919063000031b7565b507f885cb69240a935d632d79c317109709ecfa91a80626ff3989d68f67f5b1dd12d60001c73ffffffffffffffffffffffffffffffffffffffff16638bb8dd438684604051602001630000051f919063000036b8565b6040516020818303038152906040526040518363ffffffff1660e01b8152600401630000054f9291906300003653565b600060405180830381865afa925050508015630000059457506040513d6000823e3d601f19601f82011682018060405250810190630000059191906300003333565b60015b630000071e577f885cb69240a935d632d79c317109709ecfa91a80626ff3989d68f67f5b1dd12d60001c73ffffffffffffffffffffffffffffffffffffffff1663ddd2128d7f885cb69240a935d632d79c317109709ecfa91a80626ff3989d68f67f5b1dd12d60001c73ffffffffffffffffffffffffffffffffffffffff1663975a6ce9856040518263ffffffff1660e01b815260040163000006399190630000330d565b600060405180830381865afa1580156300000658573d6000803e3d6000fd5b505050506040513d6000823e3d601f19601f82011682018060405250810190630000068591906300003333565b6040518263ffffffff1660e01b815260040163000006a59190630000330d565b6000604051808303816000875af115801563000006c6573d6000803e3d6000fd5b505050506040513d6000823e3d601f19601f8201168201806040525081019063000006f391906300003333565b6002600083815260200190815260200160002090816300000716919063000031b7565b5063000007f2565b7f885cb69240a935d632d79c317109709ecfa91a80626ff3989d68f67f5b1dd12d60001c73ffffffffffffffffffffffffffffffffffffffff1663ddd2128d826040518263ffffffff1660e01b8152600401630000077e9190630000330d565b6000604051808303816000875af1158015630000079f573d6000803e3d6000fd5b505050506040513d6000823e3d601f19601f8201168201806040525081019063000007cc91906300003333565b60026000848152602001908152602001600020908163000007ef919063000031b7565b50505b6000600190505b600760ff168160ff16116300000a975760008160ff16600781111563000008275763000008266300002e63565b5b90506000846300000857836007811115630000084a5763000008496300002e63565b5b6300000c6d60201b60201c565b604051602001630000086c929190630000371f565b60405160208183030381529060405290507f885cb69240a935d632d79c317109709ecfa91a80626ff3989d68f67f5b1dd12d60001c73ffffffffffffffffffffffffffffffffffffffff1663812a44b289836040518363ffffffff1660e01b815260040163000008df9291906300003653565b600060405180830381865afa925050508015630000092457506040513d6000823e3d601f19601f8201168201806040525081019063000009219190630000352f565b60015b156300000a7c5760005b81518110156300000a7957600082828151811063000009545763000009536300003588565b5b602002602001015190506000600781111563000009785763000009776300002e63565b5b6004600089815260200190815260200160002082604051630000099d91906300003771565b908152602001604051809103902060000160009054906101000a900460ff16600781111563000009d45763000009d36300002e63565b5b036300000a1e576300000a178b858360405160200163000009f8929190630000378c565b6040516020818303038152906040528984896300000ffb60201b60201c565b6300000a5f565b806040517f7140fee00000000000000000000000000000000000000000000000000000000081526004016300000a569190630000330d565b60405180910390fd5b5080806300000a6f9063000037fa565b915050630000092e565b50505b505080806300000a8d906300003859565b91505063000007f9565b5050505b80806300000aaa9063000037fa565b9150506300000367565b50505050506300004f75565b60007f885cb69240a935d632d79c317109709ecfa91a80626ff3989d68f67f5b1dd12d60001c73ffffffffffffffffffffffffffffffffffffffff1663fa91454d836040518263ffffffff1660e01b81526004016300000b229190630000330d565b602060405180830381865afa9250505080156300000b6257506040513d601f19601f820116820180604052508101906300000b5f919063000038c2565b60015b6300000c63577f885cb69240a935d632d79c317109709ecfa91a80626ff3989d68f67f5b1dd12d60001c73ffffffffffffffffffffffffffffffffffffffff16634cc1c2bb836040518263ffffffff1660e01b81526004016300000bc89190630000330d565b600060405180830381865afa9250505080156300000c0d57506040513d6000823e3d601f19601f820116820180604052508101906300000c0a919063000039fb565b60015b6300000c5457816040517f97aa94df0000000000000000000000000000000000000000000000000000000081526004016300000c4b9190630000330d565b60405180910390fd5b80602001519150506300000c68565b809150505b919050565b6060600160078111156300000c89576300000c886300002e63565b5b8260078111156300000ca2576300000ca16300002e63565b5b036300000ce8576040518060400160405280600481526020017f626f6f6c0000000000000000000000000000000000000000000000000000000081525090506300000ff6565b600260078111156300000d02576300000d016300002e63565b5b8260078111156300000d1b576300000d1a6300002e63565b5b036300000d61576040518060400160405280600781526020017f616464726573730000000000000000000000000000000000000000000000000081525090506300000ff6565b600360078111156300000d7b576300000d7a6300002e63565b5b8260078111156300000d94576300000d936300002e63565b5b036300000dda576040518060400160405280600781526020017f627974657333320000000000000000000000000000000000000000000000000081525090506300000ff6565b600460078111156300000df4576300000df36300002e63565b5b8260078111156300000e0d576300000e0c6300002e63565b5b036300000e53576040518060400160405280600481526020017f75696e740000000000000000000000000000000000000000000000000000000081525090506300000ff6565b600560078111156300000e6d576300000e6c6300002e63565b5b8260078111156300000e86576300000e856300002e63565b5b036300000ecc576040518060400160405280600381526020017f696e74000000000000000000000000000000000000000000000000000000000081525090506300000ff6565b600660078111156300000ee6576300000ee56300002e63565b5b8260078111156300000eff576300000efe6300002e63565b5b036300000f45576040518060400160405280600681526020017f737472696e67000000000000000000000000000000000000000000000000000081525090506300000ff6565b6007808111156300000f5e576300000f5d6300002e63565b5b8260078111156300000f77576300000f766300002e63565b5b036300000fbd576040518060400160405280600581526020017f627974657300000000000000000000000000000000000000000000000000000081525090506300000ff6565b6040518060400160405280600481526020017f6e6f6e650000000000000000000000000000000000000000000000000000000081525090505b919050565b60006001600781111563000010175763000010166300002e63565b5b826007811115630000103057630000102f6300002e63565b5b0363000013f1577f885cb69240a935d632d79c317109709ecfa91a80626ff3989d68f67f5b1dd12d60001c73ffffffffffffffffffffffffffffffffffffffff1663d30dced687876040518363ffffffff1660e01b815260040163000010999291906300003653565b602060405180830381865afa92505050801563000010d957506040513d601f19601f8201168201806040525081019063000010d691906300002f0b565b60015b63000012bf577f885cb69240a935d632d79c317109709ecfa91a80626ff3989d68f67f5b1dd12d60001c73ffffffffffffffffffffffffffffffffffffffff1663127cfe9a87876040518363ffffffff1660e01b815260040163000011419291906300003653565b600060405180830381865afa925050508015630000118657506040513d6000823e3d601f19601f82011682018060405250810190630000118391906300003b3d565b60015b1563000012b8578060405160200163000011a291906300003c74565b604051602081830303815290604052600360008781526020019081526020016000208560405163000011d691906300003771565b9081526020016040518091039020908163000011f491906300003d14565b50604051806040016040528060016007811115630000121a5763000012196300002e63565b5b8152602001600115158152506004600087815260200190815260200160002085604051630000124b91906300003771565b908152602001604051809103902060008201518160000160006101000a81548160ff02191690836007811115630000128a5763000012896300002e63565b5b021790555060208201518160000160016101000a81548160ff02191690831515021790555090505060019150505b63000013ea565b8060405160200163000012d491906300003e23565b6040516020818303038152906040526003600087815260200190815260200160002085604051630000130891906300003771565b90815260200160405180910390209081630000132691906300003d14565b50604051806040016040528060016007811115630000134c57630000134b6300002e63565b5b8152602001600015158152506004600087815260200190815260200160002085604051630000137d91906300003771565b908152602001604051809103902060008201518160000160006101000a81548160ff0219169083600781111563000013bc5763000013bb6300002e63565b5b021790555060208201518160000160016101000a81548160ff02191690831515021790555090505060019150505b6300002bb0565b60026007811115630000140b57630000140a6300002e63565b5b82600781111563000014245763000014236300002e63565b5b0363000017e5577f885cb69240a935d632d79c317109709ecfa91a80626ff3989d68f67f5b1dd12d60001c73ffffffffffffffffffffffffffffffffffffffff166365e7c84487876040518363ffffffff1660e01b8152600401630000148d9291906300003653565b602060405180830381865afa92505050801563000014cd57506040513d601f19601f8201168201806040525081019063000014ca91906300003eae565b60015b63000016b3577f885cb69240a935d632d79c317109709ecfa91a80626ff3989d68f67f5b1dd12d60001c73ffffffffffffffffffffffffffffffffffffffff166365c428e787876040518363ffffffff1660e01b815260040163000015359291906300003653565b600060405180830381865afa925050508015630000157a57506040513d6000823e3d601f19601f82011682018060405250810190630000157791906300003fce565b60015b1563000016ac5780604051602001630000159691906300004105565b604051602081830303815290604052600360008781526020019081526020016000208560405163000015ca91906300003771565b9081526020016040518091039020908163000015e891906300003d14565b50604051806040016040528060026007811115630000160e57630000160d6300002e63565b5b8152602001600115158152506004600087815260200190815260200160002085604051630000163f91906300003771565b908152602001604051809103902060008201518160000160006101000a81548160ff02191690836007811115630000167e57630000167d6300002e63565b5b021790555060208201518160000160016101000a81548160ff02191690831515021790555090505060019150505b63000017de565b8060405160200163000016c89190630000413e565b604051602081830303815290604052600360008781526020019081526020016000208560405163000016fc91906300003771565b90815260200160405180910390209081630000171a91906300003d14565b50604051806040016040528060026007811115630000174057630000173f6300002e63565b5b8152602001600015158152506004600087815260200190815260200160002085604051630000177191906300003771565b908152602001604051809103902060008201518160000160006101000a81548160ff0219169083600781111563000017b05763000017af6300002e63565b5b021790555060208201518160000160016101000a81548160ff02191690831515021790555090505060019150505b6300002baf565b6003600781111563000017ff5763000017fe6300002e63565b5b82600781111563000018185763000018176300002e63565b5b036300001bd9577f885cb69240a935d632d79c317109709ecfa91a80626ff3989d68f67f5b1dd12d60001c73ffffffffffffffffffffffffffffffffffffffff16638e21481087876040518363ffffffff1660e01b815260040163000018819291906300003653565b602060405180830381865afa92505050801563000018c157506040513d601f19601f8201168201806040525081019063000018be9190630000419d565b60015b6300001aa7577f885cb69240a935d632d79c317109709ecfa91a80626ff3989d68f67f5b1dd12d60001c73ffffffffffffffffffffffffffffffffffffffff16633e716f8187876040518363ffffffff1660e01b815260040163000019299291906300003653565b600060405180830381865afa925050508015630000196e57506040513d6000823e3d601f19601f82011682018060405250810190630000196b919063000042bd565b60015b156300001aa05780604051602001630000198a919063000043f4565b604051602081830303815290604052600360008781526020019081526020016000208560405163000019be91906300003771565b9081526020016040518091039020908163000019dc91906300003d14565b506040518060400160405280600360078111156300001a02576300001a016300002e63565b5b81526020016001151581525060046000878152602001908152602001600020856040516300001a3391906300003771565b908152602001604051809103902060008201518160000160006101000a81548160ff021916908360078111156300001a72576300001a716300002e63565b5b021790555060208201518160000160016101000a81548160ff02191690831515021790555090505060019150505b6300001bd2565b806040516020016300001abc9190630000442d565b60405160208183030381529060405260036000878152602001908152602001600020856040516300001af091906300003771565b908152602001604051809103902090816300001b0e91906300003d14565b506040518060400160405280600360078111156300001b34576300001b336300002e63565b5b81526020016000151581525060046000878152602001908152602001600020856040516300001b6591906300003771565b908152602001604051809103902060008201518160000160006101000a81548160ff021916908360078111156300001ba4576300001ba36300002e63565b5b021790555060208201518160000160016101000a81548160ff02191690831515021790555090505060019150505b6300002bae565b600460078111156300001bf3576300001bf26300002e63565b5b8260078111156300001c0c576300001c0b6300002e63565b5b036300001fcd577f885cb69240a935d632d79c317109709ecfa91a80626ff3989d68f67f5b1dd12d60001c73ffffffffffffffffffffffffffffffffffffffff1663cc7b048787876040518363ffffffff1660e01b81526004016300001c759291906300003653565b602060405180830381865afa9250505080156300001cb557506040513d601f19601f820116820180604052508101906300001cb2919063000038c2565b60015b6300001e9b577f885cb69240a935d632d79c317109709ecfa91a80626ff3989d68f67f5b1dd12d60001c73ffffffffffffffffffffffffffffffffffffffff1663b5df27c887876040518363ffffffff1660e01b81526004016300001d1d9291906300003653565b600060405180830381865afa9250505080156300001d6257506040513d6000823e3d601f19601f820116820180604052508101906300001d5f91906300004535565b60015b156300001e9457806040516020016300001d7e9190630000466c565b60405160208183030381529060405260036000878152602001908152602001600020856040516300001db291906300003771565b908152602001604051809103902090816300001dd091906300003d14565b506040518060400160405280600460078111156300001df6576300001df56300002e63565b5b81526020016001151581525060046000878152602001908152602001600020856040516300001e2791906300003771565b908152602001604051809103902060008201518160000160006101000a81548160ff021916908360078111156300001e66576300001e656300002e63565b5b021790555060208201518160000160016101000a81548160ff02191690831515021790555090505060019150505b6300001fc6565b806040516020016300001eb0919063000046a5565b60405160208183030381529060405260036000878152602001908152602001600020856040516300001ee491906300003771565b908152602001604051809103902090816300001f0291906300003d14565b506040518060400160405280600460078111156300001f28576300001f276300002e63565b5b81526020016000151581525060046000878152602001908152602001600020856040516300001f5991906300003771565b908152602001604051809103902060008201518160000160006101000a81548160ff021916908360078111156300001f98576300001f976300002e63565b5b021790555060208201518160000160016101000a81548160ff02191690831515021790555090505060019150505b6300002bad565b600560078111156300001fe7576300001fe66300002e63565b5b8260078111156300002000576300001fff6300002e63565b5b0363000023c1577f885cb69240a935d632d79c317109709ecfa91a80626ff3989d68f67f5b1dd12d60001c73ffffffffffffffffffffffffffffffffffffffff1663c135073987876040518363ffffffff1660e01b815260040163000020699291906300003653565b602060405180830381865afa92505050801563000020a957506040513d601f19601f8201168201806040525081019063000020a691906300004704565b60015b630000228f577f885cb69240a935d632d79c317109709ecfa91a80626ff3989d68f67f5b1dd12d60001c73ffffffffffffffffffffffffffffffffffffffff1663d3522ae687876040518363ffffffff1660e01b815260040163000021119291906300003653565b600060405180830381865afa925050508015630000215657506040513d6000823e3d601f19601f82011682018060405250810190630000215391906300004824565b60015b156300002288578060405160200163000021729190630000495b565b604051602081830303815290604052600360008781526020019081526020016000208560405163000021a691906300003771565b9081526020016040518091039020908163000021c491906300003d14565b5060405180604001604052806005600781111563000021ea5763000021e96300002e63565b5b8152602001600115158152506004600087815260200190815260200160002085604051630000221b91906300003771565b908152602001604051809103902060008201518160000160006101000a81548160ff02191690836007811115630000225a5763000022596300002e63565b5b021790555060208201518160000160016101000a81548160ff02191690831515021790555090505060019150505b63000023ba565b8060405160200163000022a491906300004994565b604051602081830303815290604052600360008781526020019081526020016000208560405163000022d891906300003771565b9081526020016040518091039020908163000022f691906300003d14565b50604051806040016040528060056007811115630000231c57630000231b6300002e63565b5b8152602001600015158152506004600087815260200190815260200160002085604051630000234d91906300003771565b908152602001604051809103902060008201518160000160006101000a81548160ff02191690836007811115630000238c57630000238b6300002e63565b5b021790555060208201518160000160016101000a81548160ff02191690831515021790555090505060019150505b6300002bac565b60078081111563000023da5763000023d96300002e63565b5b82600781111563000023f35763000023f26300002e63565b5b0363000027b7577f885cb69240a935d632d79c317109709ecfa91a80626ff3989d68f67f5b1dd12d60001c73ffffffffffffffffffffffffffffffffffffffff1663d77bfdb987876040518363ffffffff1660e01b8152600401630000245c9291906300003653565b600060405180830381865afa92505050801563000024a157506040513d6000823e3d601f19601f82011682018060405250810190630000249e91906300004a7a565b60015b6300002686577f885cb69240a935d632d79c317109709ecfa91a80626ff3989d68f67f5b1dd12d60001c73ffffffffffffffffffffffffffffffffffffffff1663b197c24787876040518363ffffffff1660e01b815260040163000025099291906300003653565b600060405180830381865afa925050508015630000254e57506040513d6000823e3d601f19601f82011682018060405250810190630000254b91906300004be0565b60015b15630000267f5780604051602001630000256a91906300004d71565b6040516020818303038152906040526003600087815260200190815260200160002085604051630000259e91906300003771565b9081526020016040518091039020908163000025bc91906300003d14565b50604051806040016040528060078081111563000025e15763000025e06300002e63565b5b8152602001600115158152506004600087815260200190815260200160002085604051630000261291906300003771565b908152602001604051809103902060008201518160000160006101000a81548160ff0219169083600781111563000026515763000026506300002e63565b5b021790555060208201518160000160016101000a81548160ff02191690831515021790555090505060019150505b63000027b0565b80604051602001630000269b91906300004df1565b604051602081830303815290604052600360008781526020019081526020016000208560405163000026cf91906300003771565b9081526020016040518091039020908163000026ed91906300003d14565b50604051806040016040528060078081111563000027125763000027116300002e63565b5b8152602001600015158152506004600087815260200190815260200160002085604051630000274391906300003771565b908152602001604051809103902060008201518160000160006101000a81548160ff0219169083600781111563000027825763000027816300002e63565b5b021790555060208201518160000160016101000a81548160ff02191690831515021790555090505060019150505b6300002bab565b6006600781111563000027d15763000027d06300002e63565b5b82600781111563000027ea5763000027e96300002e63565b5b036300002baa577f885cb69240a935d632d79c317109709ecfa91a80626ff3989d68f67f5b1dd12d60001c73ffffffffffffffffffffffffffffffffffffffff16638bb8dd4387876040518363ffffffff1660e01b815260040163000028539291906300003653565b600060405180830381865afa925050508015630000289857506040513d6000823e3d601f19601f82011682018060405250810190630000289591906300003333565b60015b6300002a7e577f885cb69240a935d632d79c317109709ecfa91a80626ff3989d68f67f5b1dd12d60001c73ffffffffffffffffffffffffffffffffffffffff16639f62928187876040518363ffffffff1660e01b815260040163000029009291906300003653565b600060405180830381865afa925050508015630000294557506040513d6000823e3d601f19601f8201168201806040525081019063000029429190630000352f565b60015b156300002a775780604051602001630000296191906300004f4f565b6040516020818303038152906040526003600087815260200190815260200160002085604051630000299591906300003771565b9081526020016040518091039020908163000029b391906300003d14565b5060405180604001604052806006600781111563000029d95763000029d86300002e63565b5b81526020016001151581525060046000878152602001908152602001600020856040516300002a0a91906300003771565b908152602001604051809103902060008201518160000160006101000a81548160ff021916908360078111156300002a49576300002a486300002e63565b5b021790555060208201518160000160016101000a81548160ff02191690831515021790555090505060019150505b6300002ba9565b806040516020016300002a939190630000330d565b60405160208183030381529060405260036000878152602001908152602001600020856040516300002ac791906300003771565b908152602001604051809103902090816300002ae591906300003d14565b506040518060400160405280600660078111156300002b0b576300002b0a6300002e63565b5b81526020016000151581525060046000878152602001908152602001600020856040516300002b3c91906300003771565b908152602001604051809103902060008201518160000160006101000a81548160ff021916908360078111156300002b7b576300002b7a6300002e63565b5b021790555060208201518160000160016101000a81548160ff02191690831515021790555090505060019150505b5b5b5b5b5b5b5b806300002bf857826040517fea00fa130000000000000000000000000000000000000000000000000000000081526004016300002bef9190630000330d565b60405180910390fd5b505050505050565b6000604051905090565b600080fd5b600080fd5b600080fd5b600080fd5b6000601f19601f8301169050919050565b7f4e487b7100000000000000000000000000000000000000000000000000000000600052604160045260246000fd5b6300002c6b826300002c1e565b810181811067ffffffffffffffff821117156300002c90576300002c8f6300002c2f565b5b80604052505050565b60006300002ca76300002c00565b90506300002cb782826300002c5e565b919050565b600067ffffffffffffffff8211156300002cdd576300002cdc6300002c2f565b5b6300002cea826300002c1e565b9050602081019050919050565b60005b838110156300002d195780820151818401526020810190506300002cfa565b60008484015250505050565b60006300002d406300002d39846300002cbc565b6300002c99565b9050828152602081018484840111156300002d62576300002d616300002c19565b5b6300002d718482856300002cf7565b509392505050565b600082601f8301126300002d94576300002d936300002c14565b5b81516300002da88482602086016300002d25565b91505092915050565b60008115159050919050565b6300002dca816300002db1565b81146300002dd757600080fd5b50565b6000815190506300002ded816300002dbd565b92915050565b600080604083850312156300002e10576300002e0f6300002c0a565b5b600083015167ffffffffffffffff8111156300002e34576300002e336300002c0f565b5b6300002e44858286016300002d79565b92505060206300002e59858286016300002dda565b9150509250929050565b7f4e487b7100000000000000000000000000000000000000000000000000000000600052602160045260246000fd5b600981106300002ea9576300002ea86300002e63565b5b50565b60008190506300002ebe826300002e92565b919050565b60006300002ed2826300002eac565b9050919050565b6300002ee6816300002ec3565b82525050565b60006020820190506300002f0560008301846300002ed9565b92915050565b6000602082840312156300002f27576300002f266300002c0a565b5b60006300002f39848285016300002dda565b91505092915050565b600081519050919050565b7f4e487b7100000000000000000000000000000000000000000000000000000000600052602260045260246000fd5b600060028204905060018216806300002f9657607f821691505b6020821081036300002faf576300002fae6300002f4d565b5b50919050565b60008190508160005260206000209050919050565b60006020601f8301049050919050565b600082821b905092915050565b600060088302630000301b7fffffffffffffffffffffffffffffffffffffffffffffffffffffffffffffffff826300002fda565b630000302986836300002fda565b95508019841693508086168417925050509392505050565b6000819050919050565b6000819050919050565b6000630000307c6300003075630000306e846300003041565b630000304b565b6300003041565b9050919050565b6000819050919050565b630000309a836300003055565b63000030b663000030ac826300003083565b8484546300002fe7565b825550505050565b600090565b63000030cf63000030be565b63000030de818484630000308d565b505050565b5b81811015630000310a5763000030fd60008263000030c3565b60018101905063000030e4565b5050565b601f8211156300003163576300003126816300002fb5565b6300003133846300002fca565b810160208510156300003144578190505b63000031606300003156856300002fca565b83018263000030e3565b50505b505050565b600082821c905092915050565b6000630000318a600019846008026300003168565b1980831691505092915050565b600063000031a783836300003175565b9150826002028217905092915050565b63000031c4826300002f42565b67ffffffffffffffff81111563000031e35763000031e26300002c2f565b5b63000031f182546300002f7c565b6300003200828285630000310e565b600060209050601f831160018114630000323d57600084156300003225578287015190505b630000323385826300003197565b86555063000032ab565b601f198416630000324f866300002fb5565b60005b82811015630000327b578489015182556001820191506020850194506020810190506300003252565b86831015630000329e5784890151630000329a601f8916826300003175565b8355505b6001600288020188555050505b505050505050565b600082825260208201905092915050565b600063000032d3826300002f42565b63000032e1818563000032b3565b935063000032f58185602086016300002cf7565b6300003302816300002c1e565b840191505092915050565b60006020820190508181036000830152630000332b818463000032c4565b905092915050565b600060208284031215630000334f57630000334e6300002c0a565b5b600082015167ffffffffffffffff81111563000033735763000033726300002c0f565b5b6300003383848285016300002d79565b91505092915050565b7f2400000000000000000000000000000000000000000000000000000000000000600082015250565b600063000033c660018363000032b3565b915063000033d582630000338c565b602082019050919050565b6000604082019050818103600083015263000033fe818463000032c4565b9050818103602083015263000034158163000033b5565b905092915050565b600067ffffffffffffffff821115630000343e57630000343d6300002c2f565b5b602082029050602081019050919050565b600080fd5b6000630000346f630000346884630000341d565b6300002c99565b905080838252602082019050602084028301858111156300003498576300003497630000344f565b5b835b8181101563000034ed57805167ffffffffffffffff81111563000034c55763000034c46300002c14565b5b80860163000034d689826300002d79565b85526020850194505050602081019050630000349a565b5050509392505050565b600082601f83011263000035125763000035116300002c14565b5b815163000035268482602086016300003454565b91505092915050565b600060208284031215630000354b57630000354a6300002c0a565b5b600082015167ffffffffffffffff811115630000356f57630000356e6300002c0f565b5b630000357f8482850163000034f7565b91505092915050565b7f4e487b7100000000000000000000000000000000000000000000000000000000600052603260045260246000fd5b7f242e000000000000000000000000000000000000000000000000000000000000815250565b600081905092915050565b600063000035f7826300002f42565b6300003605818563000035dd565b935063000036198185602086016300002cf7565b80840191505092915050565b600063000036348263000035b7565b6002820191506300003648828463000035e8565b915081905092915050565b600060408201905081810360008301526300003671818563000032c4565b905081810360208301526300003689818463000032c4565b90509392505050565b7f2e656e64706f696e745f75726c00000000000000000000000000000000000000815250565b600063000036c78263000035b7565b60028201915063000036db828463000035e8565b915063000036ea826300003692565b600d8201915081905092915050565b7f2e00000000000000000000000000000000000000000000000000000000000000815250565b6000630000372e8263000035b7565b6002820191506300003742828563000035e8565b915063000037518263000036f9565b6001820191506300003765828463000035e8565b91508190509392505050565b60006300003781828463000035e8565b915081905092915050565b6000630000379c828563000035e8565b915063000037ab8263000036f9565b60018201915063000037bf828463000035e8565b91508190509392505050565b7f4e487b7100000000000000000000000000000000000000000000000000000000600052601160045260246000fd5b60006300003809826300003041565b91507fffffffffffffffffffffffffffffffffffffffffffffffffffffffffffffffff8203630000384157630000384063000037cb565b5b600182019050919050565b600060ff82169050919050565b6000630000386882630000384c565b915060ff8203630000388157630000388063000037cb565b5b600182019050919050565b6300003899816300003041565b811463000038a657600080fd5b50565b60008151905063000038bc81630000388c565b92915050565b60006020828403121563000038de5763000038dd6300002c0a565b5b600063000038f08482850163000038a9565b91505092915050565b600080fd5b600080fd5b600060808284031215630000391f57630000391e63000038f9565b5b630000392d60806300002c99565b9050600082015167ffffffffffffffff811115630000395357630000395263000038fe565b5b6300003963848285016300002d79565b6000830152506020630000397b8482850163000038a9565b602083015250604082015167ffffffffffffffff81111563000039a55763000039a463000038fe565b5b63000039b5848285016300002d79565b604083015250606082015167ffffffffffffffff81111563000039df5763000039de63000038fe565b5b63000039ef848285016300002d79565b60608301525092915050565b6000602082840312156300003a17576300003a166300002c0a565b5b600082015167ffffffffffffffff8111156300003a3b576300003a3a6300002c0f565b5b6300003a4b848285016300003903565b91505092915050565b600067ffffffffffffffff8211156300003a75576300003a746300002c2f565b5b602082029050602081019050919050565b60006300003aa16300003a9a846300003a54565b6300002c99565b905080838252602082019050602084028301858111156300003aca576300003ac9630000344f565b5b835b818110156300003afb57806300003ae588826300002dda565b8452602084019350506020810190506300003acc565b5050509392505050565b600082601f8301126300003b20576300003b1f6300002c14565b5b81516300003b348482602086016300003a86565b91505092915050565b6000602082840312156300003b59576300003b586300002c0a565b5b600082015167ffffffffffffffff8111156300003b7d576300003b7c6300002c0f565b5b6300003b8d848285016300003b05565b91505092915050565b600081519050919050565b600082825260208201905092915050565b6000819050602082019050919050565b6300003bcf816300002db1565b82525050565b60006300003be583836300003bc2565b60208301905092915050565b6000602082019050919050565b60006300003c0d826300003b96565b6300003c1b81856300003ba1565b93506300003c2a836300003bb2565b8060005b838110156300003c675781516300003c4888826300003bd5565b97506300003c57836300003bf1565b9250506001810190506300003c2e565b5085935050505092915050565b600060208201905081810360008301526300003c9281846300003bfe565b905092915050565b600081519050919050565b60008190508160005260206000209050919050565b601f8211156300003d0f576300003cd2816300003ca5565b6300003cdf846300002fca565b810160208510156300003cf0578190505b6300003d0c6300003d02856300002fca565b83018263000030e3565b50505b505050565b6300003d21826300003c9a565b67ffffffffffffffff8111156300003d40576300003d3f6300002c2f565b5b6300003d4e82546300002f7c565b6300003d5d8282856300003cba565b600060209050601f8311600181146300003d9a57600084156300003d82578287015190505b6300003d9085826300003197565b8655506300003e08565b601f1984166300003dac866300003ca5565b60005b828110156300003dd8578489015182556001820191506020850194506020810190506300003daf565b868310156300003dfb57848901516300003df7601f8916826300003175565b8355505b6001600288020188555050505b505050505050565b6300003e1d816300002db1565b82525050565b60006020820190506300003e3c60008301846300003e10565b92915050565b600073ffffffffffffffffffffffffffffffffffffffff82169050919050565b60006300003e71826300003e42565b9050919050565b6300003e85816300003e62565b81146300003e9257600080fd5b50565b6000815190506300003ea8816300003e78565b92915050565b6000602082840312156300003eca576300003ec96300002c0a565b5b60006300003edc848285016300003e95565b91505092915050565b600067ffffffffffffffff8211156300003f06576300003f056300002c2f565b5b602082029050602081019050919050565b60006300003f326300003f2b846300003ee5565b6300002c99565b905080838252602082019050602084028301858111156300003f5b576300003f5a630000344f565b5b835b818110156300003f8c57806300003f7688826300003e95565b8452602084019350506020810190506300003f5d565b5050509392505050565b600082601f8301126300003fb1576300003fb06300002c14565b5b81516300003fc58482602086016300003f17565b91505092915050565b6000602082840312156300003fea576300003fe96300002c0a565b5b600082015167ffffffffffffffff811115630000400e57630000400d6300002c0f565b5b630000401e848285016300003f96565b91505092915050565b600081519050919050565b600082825260208201905092915050565b6000819050602082019050919050565b6300004060816300003e62565b82525050565b6000630000407683836300004053565b60208301905092915050565b6000602082019050919050565b6000630000409e826300004027565b63000040ac81856300004032565b935063000040bb836300004043565b8060005b8381101563000040f857815163000040d988826300004066565b975063000040e8836300004082565b92505060018101905063000040bf565b5085935050505092915050565b6000602082019050818103600083015263000041238184630000408f565b905092915050565b6300004138816300003e62565b82525050565b600060208201905063000041576000830184630000412b565b92915050565b6000819050919050565b630000417481630000415d565b8114630000418157600080fd5b50565b6000815190506300004197816300004167565b92915050565b60006020828403121563000041b95763000041b86300002c0a565b5b600063000041cb848285016300004184565b91505092915050565b600067ffffffffffffffff82111563000041f55763000041f46300002c2f565b5b602082029050602081019050919050565b60006300004221630000421a8463000041d4565b6300002c99565b90508083825260208201905060208402830185811115630000424a576300004249630000344f565b5b835b81811015630000427b5780630000426588826300004184565b845260208401935050602081019050630000424c565b5050509392505050565b600082601f83011263000042a057630000429f6300002c14565b5b815163000042b48482602086016300004206565b91505092915050565b60006020828403121563000042d95763000042d86300002c0a565b5b600082015167ffffffffffffffff81111563000042fd5763000042fc6300002c0f565b5b630000430d848285016300004285565b91505092915050565b600081519050919050565b600082825260208201905092915050565b6000819050602082019050919050565b630000434f81630000415d565b82525050565b6000630000436583836300004342565b60208301905092915050565b6000602082019050919050565b6000630000438d826300004316565b630000439b81856300004321565b935063000043aa836300004332565b8060005b8381101563000043e757815163000043c888826300004355565b975063000043d7836300004371565b92505060018101905063000043ae565b5085935050505092915050565b6000602082019050818103600083015263000044128184630000437e565b905092915050565b630000442781630000415d565b82525050565b600060208201905063000044466000830184630000441a565b92915050565b600067ffffffffffffffff821115630000446d57630000446c6300002c2f565b5b602082029050602081019050919050565b60006300004499630000449284630000444c565b6300002c99565b9050808382526020820190506020840283018581111563000044c25763000044c1630000344f565b5b835b8181101563000044f3578063000044dd888263000038a9565b84526020840193505060208101905063000044c4565b5050509392505050565b600082601f83011263000045185763000045176300002c14565b5b8151630000452c848260208601630000447e565b91505092915050565b60006020828403121563000045515763000045506300002c0a565b5b600082015167ffffffffffffffff81111563000045755763000045746300002c0f565b5b63000045858482850163000044fd565b91505092915050565b600081519050919050565b600082825260208201905092915050565b6000819050602082019050919050565b63000045c7816300003041565b82525050565b600063000045dd838363000045ba565b60208301905092915050565b6000602082019050919050565b6000630000460582630000458e565b630000461381856300004599565b935063000046228363000045aa565b8060005b83811015630000465f5781516300004640888263000045cd565b9750630000464f8363000045e9565b9250506001810190506300004626565b5085935050505092915050565b60006020820190508181036000830152630000468a818463000045f6565b905092915050565b630000469f816300003041565b82525050565b600060208201905063000046be60008301846300004692565b92915050565b6000819050919050565b63000046db8163000046c4565b811463000046e857600080fd5b50565b60008151905063000046fe8163000046ce565b92915050565b600060208284031215630000472057630000471f6300002c0a565b5b600063000047328482850163000046eb565b91505092915050565b600067ffffffffffffffff821115630000475c57630000475b6300002c2f565b5b602082029050602081019050919050565b60006300004788630000478184630000473b565b6300002c99565b9050808382526020820190506020840283018581111563000047b15763000047b0630000344f565b5b835b8181101563000047e2578063000047cc888263000046eb565b84526020840193505060208101905063000047b3565b5050509392505050565b600082601f83011263000048075763000048066300002c14565b5b8151630000481b848260208601630000476d565b91505092915050565b600060208284031215630000484057630000483f6300002c0a565b5b600082015167ffffffffffffffff81111563000048645763000048636300002c0f565b5b63000048748482850163000047ec565b91505092915050565b600081519050919050565b600082825260208201905092915050565b6000819050602082019050919050565b63000048b68163000046c4565b82525050565b600063000048cc838363000048a9565b60208301905092915050565b6000602082019050919050565b600063000048f482630000487d565b630000490281856300004888565b93506300004911836300004899565b8060005b83811015630000494e578151630000492f888263000048bc565b9750630000493e8363000048d8565b9250506001810190506300004915565b5085935050505092915050565b600060208201905081810360008301526300004979818463000048e5565b905092915050565b630000498e8163000046c4565b82525050565b600060208201905063000049ad60008301846300004981565b92915050565b600067ffffffffffffffff82111563000049d45763000049d36300002c2f565b5b63000049e1826300002c1e565b9050602081019050919050565b60006300004a096300004a028463000049b3565b6300002c99565b9050828152602081018484840111156300004a2b576300004a2a6300002c19565b5b6300004a3a8482856300002cf7565b509392505050565b600082601f8301126300004a5d576300004a5c6300002c14565b5b81516300004a7184826020860163000049ee565b91505092915050565b6000602082840312156300004a96576300004a956300002c0a565b5b600082015167ffffffffffffffff8111156300004aba576300004ab96300002c0f565b5b6300004aca848285016300004a42565b91505092915050565b600067ffffffffffffffff8211156300004af4576300004af36300002c2f565b5b602082029050602081019050919050565b60006300004b206300004b19846300004ad3565b6300002c99565b905080838252602082019050602084028301858111156300004b49576300004b48630000344f565b5b835b818110156300004b9e57805167ffffffffffffffff8111156300004b76576300004b756300002c14565b5b8086016300004b8789826300004a42565b855260208501945050506020810190506300004b4b565b5050509392505050565b600082601f8301126300004bc3576300004bc26300002c14565b5b81516300004bd78482602086016300004b05565b91505092915050565b6000602082840312156300004bfc576300004bfb6300002c0a565b5b600082015167ffffffffffffffff8111156300004c20576300004c1f6300002c0f565b5b6300004c30848285016300004ba8565b91505092915050565b600081519050919050565b600082825260208201905092915050565b6000819050602082019050919050565b600082825260208201905092915050565b60006300004c85826300003c9a565b6300004c9381856300004c65565b93506300004ca78185602086016300002cf7565b6300004cb4816300002c1e565b840191505092915050565b60006300004ccf83836300004c76565b905092915050565b6000602082019050919050565b60006300004cf3826300004c39565b6300004d0181856300004c44565b9350836020820285016300004d17856300004c55565b8060005b858110156300004d5f57848403895281516300004d3a85826300004cbf565b94506300004d49836300004cd7565b925060208a019950506001810190506300004d1b565b50829750879550505050505092915050565b600060208201905081810360008301526300004d8f81846300004ce4565b905092915050565b600082825260208201905092915050565b60006300004db7826300003c9a565b6300004dc581856300004d97565b93506300004dd98185602086016300002cf7565b6300004de6816300002c1e565b840191505092915050565b600060208201905081810360008301526300004e0f81846300004da8565b905092915050565b600081519050919050565b600082825260208201905092915050565b6000819050602082019050919050565b600082825260208201905092915050565b60006300004e63826300002f42565b6300004e7181856300004e43565b93506300004e858185602086016300002cf7565b6300004e92816300002c1e565b840191505092915050565b60006300004ead83836300004e54565b905092915050565b6000602082019050919050565b60006300004ed1826300004e17565b6300004edf81856300004e22565b9350836020820285016300004ef5856300004e33565b8060005b858110156300004f3d57848403895281516300004f1885826300004e9d565b94506300004f27836300004eb5565b925060208a019950506001810190506300004ef9565b50829750879550505050505092915050565b600060208201905081810360008301526300004f6d81846300004ec2565b905092915050565b616815806300004f866000396000f3fe608060405234801561001057600080fd5b50600436106102115760003560e01c8063805da4ad11610125578063cf1cfa99116100ad578063de0fc9b31161007c578063de0fc9b3146105b2578063e298d00b146105ce578063e6053250146105ea578063e942b51614610606578063fa3c074a1461062257610211565b8063cf1cfa9914610542578063cf72a2f31461055e578063d6698dc41461057a578063db0075df1461059657610211565b806393dbe6e0116100f457806393dbe6e0146104b6578063a815ff15146104d2578063b3a64001146104ee578063ba0ff22c1461050a578063c91ca7ba1461052657610211565b8063805da4ad1461043257806388c63d45146104625780638a42ebe91461047e5780638be199241461049a57610211565b806343ec8b6a116101a857806361141c971161017757806361141c971461037e578063655609501461039a578063693ec85e146103b65780637b8fed81146103e65780637df3ef121461040257610211565b806343ec8b6a1461030c5780634d85ce801461032a57806359b39526146103465780635eba0df01461036257610211565b80632b29c0fa116101e45780632b29c0fa146102885780632e3196a5146102a45780632ef8ba74146102c05780633f3a7588146102dc57610211565b806307d79d9a1461021657806308f7b4b2146102325780631d7763231461024e57806322dc48fd1461026c575b600080fd5b610230600480360381019061022b9190613f2d565b61063e565b005b61024c6004803603810190610247919061409a565b6107bb565b005b610256610a33565b60405161026391906141e3565b60405180910390f35b61028660048036038101906102819190614205565b610bc3565b005b6102a2600480360381019061029d9190614315565b610d40565b005b6102be60048036038101906102b9919061438d565b610de0565b005b6102da60048036038101906102d591906143e9565b610e80565b005b6102f660048036038101906102f19190614445565b610f20565b604051610303919061449d565b60405180910390f35b6103146110af565b6040516103219190614537565b60405180910390f35b610344600480360381019061033f9190614559565b6111e3565b005b610360600480360381019061035b91906146c5565b611367565b005b61037c6004803603810190610377919061479b565b611407565b005b610398600480360381019061039391906148cd565b61158c565b005b6103b460048036038101906103af9190614958565b611804565b005b6103d060048036038101906103cb9190614445565b6118e8565b6040516103dd9190614b36565b60405180910390f35b61040060048036038101906103fb9190614c1b565b611992565b005b61041c60048036038101906104179190614c93565b611a32565b6040516104299190614537565b60405180910390f35b61044c60048036038101906104479190614cc0565b611ad7565b6040516104599190614b36565b60405180910390f35b61047c60048036038101906104779190614d1c565b611c42565b005b61049860048036038101906104939190614d94565b611ce2565b005b6104b460048036038101906104af9190614eb3565b611d82565b005b6104d060048036038101906104cb919061501f565b611ff2565b005b6104ec60048036038101906104e791906150aa565b612269565b005b61050860048036038101906105039190615132565b612309565b005b610524600480360381019061051f91906151a1565b612486565b005b610540600480360381019061053b91906151fd565b612526565b005b61055c60048036038101906105579190615275565b6125c6565b005b610578600480360381019061057391906152e4565b61274b565b005b610594600480360381019061058f919061536f565b612922565b005b6105b060048036038101906105ab919061539c565b612a1e565b005b6105cc60048036038101906105c79190615427565b612c8e565b005b6105e860048036038101906105e39190615562565b612d2e565b005b61060460048036038101906105ff91906155ed565b612f9e565b005b610620600480360381019061061b9190615665565b61303e565b005b61063c600480360381019061063791906156dd565b6130de565b005b600060405180604001604052806005600781111561065f5761065e6149e3565b5b815260200160001515815250905061067884848361317e565b816040516020016106899190615764565b60405160208183030381529060405260036000868152602001908152602001600020846040516106b991906157bb565b908152602001604051809103902090816106d391906159de565b50600560009054906101000a900460ff16156107b5576107b48461070c83600001516007811115610707576107066149e3565b5b6132e4565b857f885cb69240a935d632d79c317109709ecfa91a80626ff3989d68f67f5b1dd12d60001c73ffffffffffffffffffffffffffffffffffffffff1663a322c40e876040518263ffffffff1660e01b81526004016107699190615764565b600060405180830381865afa158015610786573d6000803e3d6000fd5b505050506040513d6000823e3d601f19601f820116820180604052508101906107af9190615b20565b613602565b5b50505050565b60006040518060400160405280600360078111156107dc576107db6149e3565b5b81526020016001151581525090506107f584848361317e565b816040516020016108069190615c27565b604051602081830303815290604052600360008681526020019081526020016000208460405161083691906157bb565b9081526020016040518091039020908161085091906159de565b50600560009054906101000a900460ff1615610a2d5760006040518060400160405280600181526020017f5b00000000000000000000000000000000000000000000000000000000000000815250905060005b83518110156109de57816109717f885cb69240a935d632d79c317109709ecfa91a80626ff3989d68f67f5b1dd12d60001c73ffffffffffffffffffffffffffffffffffffffff1663b11a19e887858151811061090257610901615c49565b5b60200260200101516040518263ffffffff1660e01b81526004016109269190615c87565b600060405180830381865afa158015610943573d6000803e3d6000fd5b505050506040513d6000823e3d601f19601f8201168201806040525081019061096c9190615b20565b6136d2565b604051602001610982929190615ca2565b6040516020818303038152906040529150600184516109a19190615cf5565b8110156109cb57816040516020016109b99190615d4f565b60405160208183030381529060405291505b80806109d690615d75565b9150506108a3565b50806040516020016109f09190615de3565b6040516020818303038152906040529050610a2b85610a2484600001516007811115610a1f57610a1e6149e3565b5b6132e4565b8684613602565b505b50505050565b606060006001805480602002602001604051908101604052809291908181526020016000905b82821015610b05578382906000526020600020018054610a7890615801565b80601f0160208091040260200160405190810160405280929190818152602001828054610aa490615801565b8015610af15780601f10610ac657610100808354040283529160200191610af1565b820191906000526020600020905b815481529060010190602001808311610ad457829003601f168201915b505050505081526020019060010190610a59565b5050505090506000815167ffffffffffffffff811115610b2857610b27613dcc565b5b604051908082528060200260200182016040528015610b565781602001602082028036833780820191505090505b50905060005b8251811015610bba57610b88838281518110610b7b57610b7a615c49565b5b6020026020010151610f20565b828281518110610b9b57610b9a615c49565b5b6020026020010181815250508080610bb290615d75565b915050610b5c565b50809250505090565b6000604051806040016040528060046007811115610be457610be36149e3565b5b8152602001600015158152509050610bfd84848361317e565b81604051602001610c0e919061449d565b6040516020818303038152906040526003600086815260200190815260200160002084604051610c3e91906157bb565b90815260200160405180910390209081610c5891906159de565b50600560009054906101000a900460ff1615610d3a57610d3984610c9183600001516007811115610c8c57610c8b6149e3565b5b6132e4565b857f885cb69240a935d632d79c317109709ecfa91a80626ff3989d68f67f5b1dd12d60001c73ffffffffffffffffffffffffffffffffffffffff16636900a3ae876040518263ffffffff1660e01b8152600401610cee919061449d565b600060405180830381865afa158015610d0b573d6000803e3d6000fd5b505050506040513d6000823e3d601f19601f82011682018060405250810190610d349190615b20565b613602565b5b50505050565b610ddc7f885cb69240a935d632d79c317109709ecfa91a80626ff3989d68f67f5b1dd12d60001c73ffffffffffffffffffffffffffffffffffffffff16633408e4706040518163ffffffff1660e01b8152600401602060405180830381865afa158015610db1573d6000803e3d6000fd5b505050506040513d601f19601f82011682018060405250810190610dd59190615e1e565b83836111e3565b5050565b610e7c7f885cb69240a935d632d79c317109709ecfa91a80626ff3989d68f67f5b1dd12d60001c73ffffffffffffffffffffffffffffffffffffffff16633408e4706040518163ffffffff1660e01b8152600401602060405180830381865afa158015610e51573d6000803e3d6000fd5b505050506040513d601f19601f82011682018060405250810190610e759190615e1e565b83836125c6565b5050565b610f1c7f885cb69240a935d632d79c317109709ecfa91a80626ff3989d68f67f5b1dd12d60001c73ffffffffffffffffffffffffffffffffffffffff16633408e4706040518163ffffffff1660e01b8152600401602060405180830381865afa158015610ef1573d6000803e3d6000fd5b505050506040513d601f19601f82011682018060405250810190610f159190615e1e565b838361063e565b5050565b60007f885cb69240a935d632d79c317109709ecfa91a80626ff3989d68f67f5b1dd12d60001c73ffffffffffffffffffffffffffffffffffffffff1663fa91454d836040518263ffffffff1660e01b8152600401610f7e9190614537565b602060405180830381865afa925050508015610fb857506040513d601f19601f82011682018060405250810190610fb59190615e1e565b60015b6110a5577f885cb69240a935d632d79c317109709ecfa91a80626ff3989d68f67f5b1dd12d60001c73ffffffffffffffffffffffffffffffffffffffff16634cc1c2bb836040518263ffffffff1660e01b81526004016110189190614537565b600060405180830381865afa92505050801561105757506040513d6000823e3d601f19601f820116820180604052508101906110549190615f21565b60015b61109857816040517f97aa94df00000000000000000000000000000000000000000000000000000000815260040161108f9190614537565b60405180910390fd5b80602001519150506110aa565b809150505b919050565b6060600260007f885cb69240a935d632d79c317109709ecfa91a80626ff3989d68f67f5b1dd12d60001c73ffffffffffffffffffffffffffffffffffffffff16633408e4706040518163ffffffff1660e01b8152600401602060405180830381865afa158015611123573d6000803e3d6000fd5b505050506040513d601f19601f820116820180604052508101906111479190615e1e565b8152602001908152602001600020805461116090615801565b80601f016020809104026020016040519081016040528092919081815260200182805461118c90615801565b80156111d95780601f106111ae576101008083540402835291602001916111d9565b820191906000526020600020905b8154815290600101906020018083116111bc57829003601f168201915b5050505050905090565b60006040518060400160405280600780811115611203576112026149e3565b5b815260200160001515815250905061121c84848361317e565b8160405160200161122d9190615fb4565b604051602081830303815290604052600360008681526020019081526020016000208460405161125d91906157bb565b9081526020016040518091039020908161127791906159de565b50600560009054906101000a900460ff161561136157611360846112b0836000015160078111156112ab576112aa6149e3565b5b6132e4565b8561135b7f885cb69240a935d632d79c317109709ecfa91a80626ff3989d68f67f5b1dd12d60001c73ffffffffffffffffffffffffffffffffffffffff166371aad10d886040518263ffffffff1660e01b81526004016113109190615fb4565b600060405180830381865afa15801561132d573d6000803e3d6000fd5b505050506040513d6000823e3d601f19601f820116820180604052508101906113569190615b20565b6136d2565b613602565b5b50505050565b6114037f885cb69240a935d632d79c317109709ecfa91a80626ff3989d68f67f5b1dd12d60001c73ffffffffffffffffffffffffffffffffffffffff16633408e4706040518163ffffffff1660e01b8152600401602060405180830381865afa1580156113d8573d6000803e3d6000fd5b505050506040513d601f19601f820116820180604052508101906113fc9190615e1e565b838361274b565b5050565b6000604051806040016040528060026007811115611428576114276149e3565b5b815260200160001515815250905061144184848361317e565b816040516020016114529190615fe5565b604051602081830303815290604052600360008681526020019081526020016000208460405161148291906157bb565b9081526020016040518091039020908161149c91906159de565b50600560009054906101000a900460ff161561158657611585846114d5836000015160078111156114d0576114cf6149e3565b5b6132e4565b856115807f885cb69240a935d632d79c317109709ecfa91a80626ff3989d68f67f5b1dd12d60001c73ffffffffffffffffffffffffffffffffffffffff166356ca623e886040518263ffffffff1660e01b81526004016115359190615fe5565b600060405180830381865afa158015611552573d6000803e3d6000fd5b505050506040513d6000823e3d601f19601f8201168201806040525081019061157b9190615b20565b6136d2565b613602565b5b50505050565b60006040518060400160405280600260078111156115ad576115ac6149e3565b5b81526020016001151581525090506115c684848361317e565b816040516020016115d791906160be565b604051602081830303815290604052600360008681526020019081526020016000208460405161160791906157bb565b9081526020016040518091039020908161162191906159de565b50600560009054906101000a900460ff16156117fe5760006040518060400160405280600181526020017f5b00000000000000000000000000000000000000000000000000000000000000815250905060005b83518110156117af57816117427f885cb69240a935d632d79c317109709ecfa91a80626ff3989d68f67f5b1dd12d60001c73ffffffffffffffffffffffffffffffffffffffff166356ca623e8785815181106116d3576116d2615c49565b5b60200260200101516040518263ffffffff1660e01b81526004016116f79190615fe5565b600060405180830381865afa158015611714573d6000803e3d6000fd5b505050506040513d6000823e3d601f19601f8201168201806040525081019061173d9190615b20565b6136d2565b604051602001611753929190615ca2565b6040516020818303038152906040529150600184516117729190615cf5565b81101561179c578160405160200161178a9190615d4f565b60405160208183030381529060405291505b80806117a790615d75565b915050611674565b50806040516020016117c19190615de3565b60405160208183030381529060405290506117fc856117f5846000015160078111156117f0576117ef6149e3565b5b6132e4565b8684613602565b505b50505050565b6000604051806040016040528060066007811115611825576118246149e3565b5b815260200160001515815250905061183e84848361317e565b8160405160200161184f9190614537565b604051602081830303815290604052600360008681526020019081526020016000208460405161187f91906157bb565b9081526020016040518091039020908161189991906159de565b50600560009054906101000a900460ff16156118e2576118e1846118d2836000015160078111156118cd576118cc6149e3565b5b6132e4565b856118dc866136d2565b613602565b5b50505050565b6118f0613d19565b61198b7f885cb69240a935d632d79c317109709ecfa91a80626ff3989d68f67f5b1dd12d60001c73ffffffffffffffffffffffffffffffffffffffff16633408e4706040518163ffffffff1660e01b8152600401602060405180830381865afa158015611961573d6000803e3d6000fd5b505050506040513d601f19601f820116820180604052508101906119859190615e1e565b83611ad7565b9050919050565b611a2e7f885cb69240a935d632d79c317109709ecfa91a80626ff3989d68f67f5b1dd12d60001c73ffffffffffffffffffffffffffffffffffffffff16633408e4706040518163ffffffff1660e01b8152600401602060405180830381865afa158015611a03573d6000803e3d6000fd5b505050506040513d601f19601f82011682018060405250810190611a279190615e1e565b8383612a1e565b5050565b6060600260008381526020019081526020016000208054611a5290615801565b80601f0160208091040260200160405190810160405280929190818152602001828054611a7e90615801565b8015611acb5780601f10611aa057610100808354040283529160200191611acb565b820191906000526020600020905b815481529060010190602001808311611aae57829003601f168201915b50505050509050919050565b611adf613d19565b60405180604001604052806004600086815260200190815260200160002084604051611b0b91906157bb565b90815260200160405180910390206040518060400160405290816000820160009054906101000a900460ff166007811115611b4957611b486149e3565b5b6007811115611b5b57611b5a6149e3565b5b81526020016000820160019054906101000a900460ff16151515158152505081526020016003600086815260200190815260200160002084604051611ba091906157bb565b90815260200160405180910390208054611bb990615801565b80601f0160208091040260200160405190810160405280929190818152602001828054611be590615801565b8015611c325780601f10611c0757610100808354040283529160200191611c32565b820191906000526020600020905b815481529060010190602001808311611c1557829003601f168201915b5050505050815250905092915050565b611cde7f885cb69240a935d632d79c317109709ecfa91a80626ff3989d68f67f5b1dd12d60001c73ffffffffffffffffffffffffffffffffffffffff16633408e4706040518163ffffffff1660e01b8152600401602060405180830381865afa158015611cb3573d6000803e3d6000fd5b505050506040513d601f19601f82011682018060405250810190611cd79190615e1e565b838361158c565b5050565b611d7e7f885cb69240a935d632d79c317109709ecfa91a80626ff3989d68f67f5b1dd12d60001c73ffffffffffffffffffffffffffffffffffffffff16633408e4706040518163ffffffff1660e01b8152600401602060405180830381865afa158015611d53573d6000803e3d6000fd5b505050506040513d601f19601f82011682018060405250810190611d779190615e1e565b8383610bc3565b5050565b6000604051806040016040528060056007811115611da357611da26149e3565b5b8152602001600115158152509050611dbc84848361317e565b81604051602001611dcd919061619e565b6040516020818303038152906040526003600086815260200190815260200160002084604051611dfd91906157bb565b90815260200160405180910390209081611e1791906159de565b50600560009054906101000a900460ff1615611fec5760006040518060400160405280600181526020017f5b00000000000000000000000000000000000000000000000000000000000000815250905060005b8351811015611f9d57817f885cb69240a935d632d79c317109709ecfa91a80626ff3989d68f67f5b1dd12d60001c73ffffffffffffffffffffffffffffffffffffffff1663a322c40e868481518110611ec657611ec5615c49565b5b60200260200101516040518263ffffffff1660e01b8152600401611eea9190615764565b600060405180830381865afa158015611f07573d6000803e3d6000fd5b505050506040513d6000823e3d601f19601f82011682018060405250810190611f309190615b20565b604051602001611f41929190615ca2565b604051602081830303815290604052915060018451611f609190615cf5565b811015611f8a5781604051602001611f789190615d4f565b60405160208183030381529060405291505b8080611f9590615d75565b915050611e6a565b5080604051602001611faf9190615de3565b6040516020818303038152906040529050611fea85611fe384600001516007811115611fde57611fdd6149e3565b5b6132e4565b8684613602565b505b50505050565b60006040518060400160405280600780811115612012576120116149e3565b5b815260200160011515815250905061202b84848361317e565b8160405160200161203c9190616282565b604051602081830303815290604052600360008681526020019081526020016000208460405161206c91906157bb565b9081526020016040518091039020908161208691906159de565b50600560009054906101000a900460ff16156122635760006040518060400160405280600181526020017f5b00000000000000000000000000000000000000000000000000000000000000815250905060005b835181101561221457816121a77f885cb69240a935d632d79c317109709ecfa91a80626ff3989d68f67f5b1dd12d60001c73ffffffffffffffffffffffffffffffffffffffff166371aad10d87858151811061213857612137615c49565b5b60200260200101516040518263ffffffff1660e01b815260040161215c9190615fb4565b600060405180830381865afa158015612179573d6000803e3d6000fd5b505050506040513d6000823e3d601f19601f820116820180604052508101906121a29190615b20565b6136d2565b6040516020016121b8929190615ca2565b6040516020818303038152906040529150600184516121d79190615cf5565b81101561220157816040516020016121ef9190615d4f565b60405160208183030381529060405291505b808061220c90615d75565b9150506120d9565b50806040516020016122269190615de3565b60405160208183030381529060405290506122618561225a84600001516007811115612255576122546149e3565b5b6132e4565b8684613602565b505b50505050565b6123057f885cb69240a935d632d79c317109709ecfa91a80626ff3989d68f67f5b1dd12d60001c73ffffffffffffffffffffffffffffffffffffffff16633408e4706040518163ffffffff1660e01b8152600401602060405180830381865afa1580156122da573d6000803e3d6000fd5b505050506040513d601f19601f820116820180604052508101906122fe9190615e1e565b8383611407565b5050565b600060405180604001604052806001600781111561232a576123296149e3565b5b815260200160001515815250905061234384848361317e565b8160405160200161235491906162b3565b604051602081830303815290604052600360008681526020019081526020016000208460405161238491906157bb565b9081526020016040518091039020908161239e91906159de565b50600560009054906101000a900460ff16156124805761247f846123d7836000015160078111156123d2576123d16149e3565b5b6132e4565b857f885cb69240a935d632d79c317109709ecfa91a80626ff3989d68f67f5b1dd12d60001c73ffffffffffffffffffffffffffffffffffffffff166371dce7da876040518263ffffffff1660e01b815260040161243491906162b3565b600060405180830381865afa158015612451573d6000803e3d6000fd5b505050506040513d6000823e3d601f19601f8201168201806040525081019061247a9190615b20565b613602565b5b50505050565b6125227f885cb69240a935d632d79c317109709ecfa91a80626ff3989d68f67f5b1dd12d60001c73ffffffffffffffffffffffffffffffffffffffff16633408e4706040518163ffffffff1660e01b8152600401602060405180830381865afa1580156124f7573d6000803e3d6000fd5b505050506040513d601f19601f8201168201806040525081019061251b9190615e1e565b8383612309565b5050565b6125c27f885cb69240a935d632d79c317109709ecfa91a80626ff3989d68f67f5b1dd12d60001c73ffffffffffffffffffffffffffffffffffffffff16633408e4706040518163ffffffff1660e01b8152600401602060405180830381865afa158015612597573d6000803e3d6000fd5b505050506040513d601f19601f820116820180604052508101906125bb9190615e1e565b8383611ff2565b5050565b60006040518060400160405280600360078111156125e7576125e66149e3565b5b815260200160001515815250905061260084848361317e565b816040516020016126119190615c87565b604051602081830303815290604052600360008681526020019081526020016000208460405161264191906157bb565b9081526020016040518091039020908161265b91906159de565b50600560009054906101000a900460ff161561274557612744846126948360000151600781111561268f5761268e6149e3565b5b6132e4565b8561273f7f885cb69240a935d632d79c317109709ecfa91a80626ff3989d68f67f5b1dd12d60001c73ffffffffffffffffffffffffffffffffffffffff1663b11a19e8886040518263ffffffff1660e01b81526004016126f49190615c87565b600060405180830381865afa158015612711573d6000803e3d6000fd5b505050506040513d6000823e3d601f19601f8201168201806040525081019061273a9190615b20565b6136d2565b613602565b5b50505050565b600060405180604001604052806006600781111561276c5761276b6149e3565b5b815260200160011515815250905061278584848361317e565b8160405160200161279691906163da565b60405160208183030381529060405260036000868152602001908152602001600020846040516127c691906157bb565b908152602001604051809103902090816127e091906159de565b50600560009054906101000a900460ff161561291c5760006040518060400160405280600181526020017f5b00000000000000000000000000000000000000000000000000000000000000815250905060005b83518110156128cd578161286085838151811061285357612852615c49565b5b60200260200101516136d2565b604051602001612871929190615ca2565b6040516020818303038152906040529150600184516128909190615cf5565b8110156128ba57816040516020016128a89190615d4f565b60405160208183030381529060405291505b80806128c590615d75565b915050612833565b50806040516020016128df9190615de3565b604051602081830303815290604052905061291a856129138460000151600781111561290e5761290d6149e3565b5b6132e4565b8684613602565b505b50505050565b8080156129ca57507f885cb69240a935d632d79c317109709ecfa91a80626ff3989d68f67f5b1dd12d60001c73ffffffffffffffffffffffffffffffffffffffff166364af255d60046040518263ffffffff1660e01b81526004016129879190616444565b602060405180830381865afa1580156129a4573d6000803e3d6000fd5b505050506040513d601f19601f820116820180604052508101906129c89190616474565b155b15612a01576040517f2ebcd21800000000000000000000000000000000000000000000000000000000815260040160405180910390fd5b80600560006101000a81548160ff02191690831515021790555050565b6000604051806040016040528060046007811115612a3f57612a3e6149e3565b5b8152602001600115158152509050612a5884848361317e565b81604051602001612a6991906141e3565b6040516020818303038152906040526003600086815260200190815260200160002084604051612a9991906157bb565b90815260200160405180910390209081612ab391906159de565b50600560009054906101000a900460ff1615612c885760006040518060400160405280600181526020017f5b00000000000000000000000000000000000000000000000000000000000000815250905060005b8351811015612c3957817f885cb69240a935d632d79c317109709ecfa91a80626ff3989d68f67f5b1dd12d60001c73ffffffffffffffffffffffffffffffffffffffff16636900a3ae868481518110612b6257612b61615c49565b5b60200260200101516040518263ffffffff1660e01b8152600401612b86919061449d565b600060405180830381865afa158015612ba3573d6000803e3d6000fd5b505050506040513d6000823e3d601f19601f82011682018060405250810190612bcc9190615b20565b604051602001612bdd929190615ca2565b604051602081830303815290604052915060018451612bfc9190615cf5565b811015612c265781604051602001612c149190615d4f565b60405160208183030381529060405291505b8080612c3190615d75565b915050612b06565b5080604051602001612c4b9190615de3565b6040516020818303038152906040529050612c8685612c7f84600001516007811115612c7a57612c796149e3565b5b6132e4565b8684613602565b505b50505050565b612d2a7f885cb69240a935d632d79c317109709ecfa91a80626ff3989d68f67f5b1dd12d60001c73ffffffffffffffffffffffffffffffffffffffff16633408e4706040518163ffffffff1660e01b8152600401602060405180830381865afa158015612cff573d6000803e3d6000fd5b505050506040513d601f19601f82011682018060405250810190612d239190615e1e565b8383611d82565b5050565b6000604051806040016040528060016007811115612d4f57612d4e6149e3565b5b8152602001600115158152509050612d6884848361317e565b81604051602001612d799190616550565b6040516020818303038152906040526003600086815260200190815260200160002084604051612da991906157bb565b90815260200160405180910390209081612dc391906159de565b50600560009054906101000a900460ff1615612f985760006040518060400160405280600181526020017f5b00000000000000000000000000000000000000000000000000000000000000815250905060005b8351811015612f4957817f885cb69240a935d632d79c317109709ecfa91a80626ff3989d68f67f5b1dd12d60001c73ffffffffffffffffffffffffffffffffffffffff166371dce7da868481518110612e7257612e71615c49565b5b60200260200101516040518263ffffffff1660e01b8152600401612e9691906162b3565b600060405180830381865afa158015612eb3573d6000803e3d6000fd5b505050506040513d6000823e3d601f19601f82011682018060405250810190612edc9190615b20565b604051602001612eed929190615ca2565b604051602081830303815290604052915060018451612f0c9190615cf5565b811015612f365781604051602001612f249190615d4f565b60405160208183030381529060405291505b8080612f4190615d75565b915050612e16565b5080604051602001612f5b9190615de3565b6040516020818303038152906040529050612f9685612f8f84600001516007811115612f8a57612f896149e3565b5b6132e4565b8684613602565b505b50505050565b61303a7f885cb69240a935d632d79c317109709ecfa91a80626ff3989d68f67f5b1dd12d60001c73ffffffffffffffffffffffffffffffffffffffff16633408e4706040518163ffffffff1660e01b8152600401602060405180830381865afa15801561300f573d6000803e3d6000fd5b505050506040513d601f19601f820116820180604052508101906130339190615e1e565b83836107bb565b5050565b6130da7f885cb69240a935d632d79c317109709ecfa91a80626ff3989d68f67f5b1dd12d60001c73ffffffffffffffffffffffffffffffffffffffff16633408e4706040518163ffffffff1660e01b8152600401602060405180830381865afa1580156130af573d6000803e3d6000fd5b505050506040513d601f19601f820116820180604052508101906130d39190615e1e565b8383611804565b5050565b61317a7f885cb69240a935d632d79c317109709ecfa91a80626ff3989d68f67f5b1dd12d60001c73ffffffffffffffffffffffffffffffffffffffff16633408e4706040518163ffffffff1660e01b8152600401602060405180830381865afa15801561314f573d6000803e3d6000fd5b505050506040513d601f19601f820116820180604052508101906131739190615e1e565b8383612d2e565b5050565b600060046000858152602001908152602001600020836040516131a191906157bb565b90815260200160405180910390206040518060400160405290816000820160009054906101000a900460ff1660078111156131df576131de6149e3565b5b60078111156131f1576131f06149e3565b5b81526020016000820160019054906101000a900460ff161515151581525050905060006007811115613226576132256149e3565b5b8160000151600781111561323d5761323c6149e3565b5b036132ca5781600460008681526020019081526020016000208460405161326491906157bb565b908152602001604051809103902060008201518160000160006101000a81548160ff0219169083600781111561329d5761329c6149e3565b5b021790555060208201518160000160016101000a81548160ff0219169083151502179055509050506132de565b6132dd82826136fb90919063ffffffff16565b5b50505050565b6060600160078111156132fa576132f96149e3565b5b82600781111561330d5761330c6149e3565b5b0361334f576040518060400160405280600481526020017f626f6f6c0000000000000000000000000000000000000000000000000000000081525090506135fd565b60026007811115613363576133626149e3565b5b826007811115613376576133756149e3565b5b036133b8576040518060400160405280600781526020017f616464726573730000000000000000000000000000000000000000000000000081525090506135fd565b600360078111156133cc576133cb6149e3565b5b8260078111156133df576133de6149e3565b5b03613421576040518060400160405280600781526020017f627974657333320000000000000000000000000000000000000000000000000081525090506135fd565b60046007811115613435576134346149e3565b5b826007811115613448576134476149e3565b5b0361348a576040518060400160405280600481526020017f75696e740000000000000000000000000000000000000000000000000000000081525090506135fd565b6005600781111561349e5761349d6149e3565b5b8260078111156134b1576134b06149e3565b5b036134f3576040518060400160405280600381526020017f696e74000000000000000000000000000000000000000000000000000000000081525090506135fd565b60066007811115613507576135066149e3565b5b82600781111561351a576135196149e3565b5b0361355c576040518060400160405280600681526020017f737472696e67000000000000000000000000000000000000000000000000000081525090506135fd565b60078081111561356f5761356e6149e3565b5b826007811115613582576135816149e3565b5b036135c4576040518060400160405280600581526020017f627974657300000000000000000000000000000000000000000000000000000081525090506135fd565b6040518060400160405280600481526020017f6e6f6e650000000000000000000000000000000000000000000000000000000081525090505b919050565b600061360d8561375c565b90506000818585604051602001613626939291906165be565b60405160208183030381529060405290507f885cb69240a935d632d79c317109709ecfa91a80626ff3989d68f67f5b1dd12d60001c73ffffffffffffffffffffffffffffffffffffffff166351ac6a33846000846040518463ffffffff1660e01b8152600401613698939291906166b5565b600060405180830381600087803b1580156136b257600080fd5b505af11580156136c6573d6000803e3d6000fd5b50505050505050505050565b6060816040516020016136e59190616727565b6040516020818303038152906040529050919050565b6137058282613928565b6137585761371281613978565b61371b83613978565b6040517fb02cf71d00000000000000000000000000000000000000000000000000000000815260040161374f92919061675c565b60405180910390fd5b5050565b606060005b6001805490508110156138e5578261381e6001838154811061378657613785615c49565b5b90600052602060002001805461379b90615801565b80601f01602080910402602001604051908101604052809291908181526020018280546137c790615801565b80156138145780601f106137e957610100808354040283529160200191613814565b820191906000526020600020905b8154815290600101906020018083116137f757829003601f168201915b5050505050610f20565b036138d2576001818154811061383757613836615c49565b5b90600052602060002001805461384c90615801565b80601f016020809104026020016040519081016040528092919081815260200182805461387890615801565b80156138c55780601f1061389a576101008083540402835291602001916138c5565b820191906000526020600020905b8154815290600101906020018083116138a857829003601f168201915b5050505050915050613923565b80806138dd90615d75565b915050613761565b50816040517f3ff29f0600000000000000000000000000000000000000000000000000000000815260040161391a919061449d565b60405180910390fd5b919050565b600081600001516007811115613941576139406149e3565b5b83600001516007811115613958576139576149e3565b5b14801561397057508160200151151583602001511515145b905092915050565b6060600061398983600001516139fb565b9050826020015115806139c45750600060078111156139ab576139aa6149e3565b5b836000015160078111156139c2576139c16149e3565b5b145b156139d257809150506139f6565b806040516020016139e391906167b9565b6040516020818303038152906040529150505b919050565b606060016007811115613a1157613a106149e3565b5b826007811115613a2457613a236149e3565b5b03613a66576040518060400160405280600481526020017f626f6f6c000000000000000000000000000000000000000000000000000000008152509050613d14565b60026007811115613a7a57613a796149e3565b5b826007811115613a8d57613a8c6149e3565b5b03613acf576040518060400160405280600781526020017f61646472657373000000000000000000000000000000000000000000000000008152509050613d14565b60036007811115613ae357613ae26149e3565b5b826007811115613af657613af56149e3565b5b03613b38576040518060400160405280600781526020017f62797465733332000000000000000000000000000000000000000000000000008152509050613d14565b60046007811115613b4c57613b4b6149e3565b5b826007811115613b5f57613b5e6149e3565b5b03613ba1576040518060400160405280600781526020017f75696e74323536000000000000000000000000000000000000000000000000008152509050613d14565b60056007811115613bb557613bb46149e3565b5b826007811115613bc857613bc76149e3565b5b03613c0a576040518060400160405280600681526020017f696e7432353600000000000000000000000000000000000000000000000000008152509050613d14565b60066007811115613c1e57613c1d6149e3565b5b826007811115613c3157613c306149e3565b5b03613c73576040518060400160405280600681526020017f737472696e6700000000000000000000000000000000000000000000000000008152509050613d14565b600780811115613c8657613c856149e3565b5b826007811115613c9957613c986149e3565b5b03613cdb576040518060400160405280600581526020017f62797465730000000000000000000000000000000000000000000000000000008152509050613d14565b6040518060400160405280600481526020017f6e6f6e650000000000000000000000000000000000000000000000000000000081525090505b919050565b6040518060400160405280613d2c613d39565b8152602001606081525090565b604051806040016040528060006007811115613d5857613d576149e3565b5b81526020016000151581525090565b6000604051905090565b600080fd5b600080fd5b6000819050919050565b613d8e81613d7b565b8114613d9957600080fd5b50565b600081359050613dab81613d85565b92915050565b600080fd5b600080fd5b6000601f19601f8301169050919050565b7f4e487b7100000000000000000000000000000000000000000000000000000000600052604160045260246000fd5b613e0482613dbb565b810181811067ffffffffffffffff82111715613e2357613e22613dcc565b5b80604052505050565b6000613e36613d67565b9050613e428282613dfb565b919050565b600067ffffffffffffffff821115613e6257613e61613dcc565b5b613e6b82613dbb565b9050602081019050919050565b82818337600083830152505050565b6000613e9a613e9584613e47565b613e2c565b905082815260208101848484011115613eb657613eb5613db6565b5b613ec1848285613e78565b509392505050565b600082601f830112613ede57613edd613db1565b5b8135613eee848260208601613e87565b91505092915050565b6000819050919050565b613f0a81613ef7565b8114613f1557600080fd5b50565b600081359050613f2781613f01565b92915050565b600080600060608486031215613f4657613f45613d71565b5b6000613f5486828701613d9c565b935050602084013567ffffffffffffffff811115613f7557613f74613d76565b5b613f8186828701613ec9565b9250506040613f9286828701613f18565b9150509250925092565b600067ffffffffffffffff821115613fb757613fb6613dcc565b5b602082029050602081019050919050565b600080fd5b6000819050919050565b613fe081613fcd565b8114613feb57600080fd5b50565b600081359050613ffd81613fd7565b92915050565b600061401661401184613f9c565b613e2c565b9050808382526020820190506020840283018581111561403957614038613fc8565b5b835b81811015614062578061404e8882613fee565b84526020840193505060208101905061403b565b5050509392505050565b600082601f83011261408157614080613db1565b5b8135614091848260208601614003565b91505092915050565b6000806000606084860312156140b3576140b2613d71565b5b60006140c186828701613d9c565b935050602084013567ffffffffffffffff8111156140e2576140e1613d76565b5b6140ee86828701613ec9565b925050604084013567ffffffffffffffff81111561410f5761410e613d76565b5b61411b8682870161406c565b9150509250925092565b600081519050919050565b600082825260208201905092915050565b6000819050602082019050919050565b61415a81613d7b565b82525050565b600061416c8383614151565b60208301905092915050565b6000602082019050919050565b600061419082614125565b61419a8185614130565b93506141a583614141565b8060005b838110156141d65781516141bd8882614160565b97506141c883614178565b9250506001810190506141a9565b5085935050505092915050565b600060208201905081810360008301526141fd8184614185565b905092915050565b60008060006060848603121561421e5761421d613d71565b5b600061422c86828701613d9c565b935050602084013567ffffffffffffffff81111561424d5761424c613d76565b5b61425986828701613ec9565b925050604061426a86828701613d9c565b9150509250925092565b600067ffffffffffffffff82111561428f5761428e613dcc565b5b61429882613dbb565b9050602081019050919050565b60006142b86142b384614274565b613e2c565b9050828152602081018484840111156142d4576142d3613db6565b5b6142df848285613e78565b509392505050565b600082601f8301126142fc576142fb613db1565b5b813561430c8482602086016142a5565b91505092915050565b6000806040838503121561432c5761432b613d71565b5b600083013567ffffffffffffffff81111561434a57614349613d76565b5b61435685828601613ec9565b925050602083013567ffffffffffffffff81111561437757614376613d76565b5b614383858286016142e7565b9150509250929050565b600080604083850312156143a4576143a3613d71565b5b600083013567ffffffffffffffff8111156143c2576143c1613d76565b5b6143ce85828601613ec9565b92505060206143df85828601613fee565b9150509250929050565b60008060408385031215614400576143ff613d71565b5b600083013567ffffffffffffffff81111561441e5761441d613d76565b5b61442a85828601613ec9565b925050602061443b85828601613f18565b9150509250929050565b60006020828403121561445b5761445a613d71565b5b600082013567ffffffffffffffff81111561447957614478613d76565b5b61448584828501613ec9565b91505092915050565b61449781613d7b565b82525050565b60006020820190506144b2600083018461448e565b92915050565b600081519050919050565b600082825260208201905092915050565b60005b838110156144f25780820151818401526020810190506144d7565b60008484015250505050565b6000614509826144b8565b61451381856144c3565b93506145238185602086016144d4565b61452c81613dbb565b840191505092915050565b6000602082019050818103600083015261455181846144fe565b905092915050565b60008060006060848603121561457257614571613d71565b5b600061458086828701613d9c565b935050602084013567ffffffffffffffff8111156145a1576145a0613d76565b5b6145ad86828701613ec9565b925050604084013567ffffffffffffffff8111156145ce576145cd613d76565b5b6145da868287016142e7565b9150509250925092565b600067ffffffffffffffff8211156145ff576145fe613dcc565b5b602082029050602081019050919050565b600061462361461e846145e4565b613e2c565b9050808382526020820190506020840283018581111561464657614645613fc8565b5b835b8181101561468d57803567ffffffffffffffff81111561466b5761466a613db1565b5b8086016146788982613ec9565b85526020850194505050602081019050614648565b5050509392505050565b600082601f8301126146ac576146ab613db1565b5b81356146bc848260208601614610565b91505092915050565b600080604083850312156146dc576146db613d71565b5b600083013567ffffffffffffffff8111156146fa576146f9613d76565b5b61470685828601613ec9565b925050602083013567ffffffffffffffff81111561472757614726613d76565b5b61473385828601614697565b9150509250929050565b600073ffffffffffffffffffffffffffffffffffffffff82169050919050565b60006147688261473d565b9050919050565b6147788161475d565b811461478357600080fd5b50565b6000813590506147958161476f565b92915050565b6000806000606084860312156147b4576147b3613d71565b5b60006147c286828701613d9c565b935050602084013567ffffffffffffffff8111156147e3576147e2613d76565b5b6147ef86828701613ec9565b925050604061480086828701614786565b9150509250925092565b600067ffffffffffffffff82111561482557614824613dcc565b5b602082029050602081019050919050565b60006148496148448461480a565b613e2c565b9050808382526020820190506020840283018581111561486c5761486b613fc8565b5b835b8181101561489557806148818882614786565b84526020840193505060208101905061486e565b5050509392505050565b600082601f8301126148b4576148b3613db1565b5b81356148c4848260208601614836565b91505092915050565b6000806000606084860312156148e6576148e5613d71565b5b60006148f486828701613d9c565b935050602084013567ffffffffffffffff81111561491557614914613d76565b5b61492186828701613ec9565b925050604084013567ffffffffffffffff81111561494257614941613d76565b5b61494e8682870161489f565b9150509250925092565b60008060006060848603121561497157614970613d71565b5b600061497f86828701613d9c565b935050602084013567ffffffffffffffff8111156149a05761499f613d76565b5b6149ac86828701613ec9565b925050604084013567ffffffffffffffff8111156149cd576149cc613d76565b5b6149d986828701613ec9565b9150509250925092565b7f4e487b7100000000000000000000000000000000000000000000000000000000600052602160045260246000fd5b60088110614a2357614a226149e3565b5b50565b6000819050614a3482614a12565b919050565b6000614a4482614a26565b9050919050565b614a5481614a39565b82525050565b60008115159050919050565b614a6f81614a5a565b82525050565b604082016000820151614a8b6000850182614a4b565b506020820151614a9e6020850182614a66565b50505050565b600081519050919050565b600082825260208201905092915050565b6000614acb82614aa4565b614ad58185614aaf565b9350614ae58185602086016144d4565b614aee81613dbb565b840191505092915050565b6000606083016000830151614b116000860182614a75565b5060208301518482036040860152614b298282614ac0565b9150508091505092915050565b60006020820190508181036000830152614b508184614af9565b905092915050565b600067ffffffffffffffff821115614b7357614b72613dcc565b5b602082029050602081019050919050565b6000614b97614b9284614b58565b613e2c565b90508083825260208201905060208402830185811115614bba57614bb9613fc8565b5b835b81811015614be35780614bcf8882613d9c565b845260208401935050602081019050614bbc565b5050509392505050565b600082601f830112614c0257614c01613db1565b5b8135614c12848260208601614b84565b91505092915050565b60008060408385031215614c3257614c31613d71565b5b600083013567ffffffffffffffff811115614c5057614c4f613d76565b5b614c5c85828601613ec9565b925050602083013567ffffffffffffffff811115614c7d57614c7c613d76565b5b614c8985828601614bed565b9150509250929050565b600060208284031215614ca957614ca8613d71565b5b6000614cb784828501613d9c565b91505092915050565b60008060408385031215614cd757614cd6613d71565b5b6000614ce585828601613d9c565b925050602083013567ffffffffffffffff811115614d0657614d05613d76565b5b614d1285828601613ec9565b9150509250929050565b60008060408385031215614d3357614d32613d71565b5b600083013567ffffffffffffffff811115614d5157614d50613d76565b5b614d5d85828601613ec9565b925050602083013567ffffffffffffffff811115614d7e57614d7d613d76565b5b614d8a8582860161489f565b9150509250929050565b60008060408385031215614dab57614daa613d71565b5b600083013567ffffffffffffffff811115614dc957614dc8613d76565b5b614dd585828601613ec9565b9250506020614de685828601613d9c565b9150509250929050565b600067ffffffffffffffff821115614e0b57614e0a613dcc565b5b602082029050602081019050919050565b6000614e2f614e2a84614df0565b613e2c565b90508083825260208201905060208402830185811115614e5257614e51613fc8565b5b835b81811015614e7b5780614e678882613f18565b845260208401935050602081019050614e54565b5050509392505050565b600082601f830112614e9a57614e99613db1565b5b8135614eaa848260208601614e1c565b91505092915050565b600080600060608486031215614ecc57614ecb613d71565b5b6000614eda86828701613d9c565b935050602084013567ffffffffffffffff811115614efb57614efa613d76565b5b614f0786828701613ec9565b925050604084013567ffffffffffffffff811115614f2857614f27613d76565b5b614f3486828701614e85565b9150509250925092565b600067ffffffffffffffff821115614f5957614f58613dcc565b5b602082029050602081019050919050565b6000614f7d614f7884614f3e565b613e2c565b90508083825260208201905060208402830185811115614fa057614f9f613fc8565b5b835b81811015614fe757803567ffffffffffffffff811115614fc557614fc4613db1565b5b808601614fd289826142e7565b85526020850194505050602081019050614fa2565b5050509392505050565b600082601f83011261500657615005613db1565b5b8135615016848260208601614f6a565b91505092915050565b60008060006060848603121561503857615037613d71565b5b600061504686828701613d9c565b935050602084013567ffffffffffffffff81111561506757615066613d76565b5b61507386828701613ec9565b925050604084013567ffffffffffffffff81111561509457615093613d76565b5b6150a086828701614ff1565b9150509250925092565b600080604083850312156150c1576150c0613d71565b5b600083013567ffffffffffffffff8111156150df576150de613d76565b5b6150eb85828601613ec9565b92505060206150fc85828601614786565b9150509250929050565b61510f81614a5a565b811461511a57600080fd5b50565b60008135905061512c81615106565b92915050565b60008060006060848603121561514b5761514a613d71565b5b600061515986828701613d9c565b935050602084013567ffffffffffffffff81111561517a57615179613d76565b5b61518686828701613ec9565b92505060406151978682870161511d565b9150509250925092565b600080604083850312156151b8576151b7613d71565b5b600083013567ffffffffffffffff8111156151d6576151d5613d76565b5b6151e285828601613ec9565b92505060206151f38582860161511d565b9150509250929050565b6000806040838503121561521457615213613d71565b5b600083013567ffffffffffffffff81111561523257615231613d76565b5b61523e85828601613ec9565b925050602083013567ffffffffffffffff81111561525f5761525e613d76565b5b61526b85828601614ff1565b9150509250929050565b60008060006060848603121561528e5761528d613d71565b5b600061529c86828701613d9c565b935050602084013567ffffffffffffffff8111156152bd576152bc613d76565b5b6152c986828701613ec9565b92505060406152da86828701613fee565b9150509250925092565b6000806000606084860312156152fd576152fc613d71565b5b600061530b86828701613d9c565b935050602084013567ffffffffffffffff81111561532c5761532b613d76565b5b61533886828701613ec9565b925050604084013567ffffffffffffffff81111561535957615358613d76565b5b61536586828701614697565b9150509250925092565b60006020828403121561538557615384613d71565b5b60006153938482850161511d565b91505092915050565b6000806000606084860312156153b5576153b4613d71565b5b60006153c386828701613d9c565b935050602084013567ffffffffffffffff8111156153e4576153e3613d76565b5b6153f086828701613ec9565b925050604084013567ffffffffffffffff81111561541157615410613d76565b5b61541d86828701614bed565b9150509250925092565b6000806040838503121561543e5761543d613d71565b5b600083013567ffffffffffffffff81111561545c5761545b613d76565b5b61546885828601613ec9565b925050602083013567ffffffffffffffff81111561548957615488613d76565b5b61549585828601614e85565b9150509250929050565b600067ffffffffffffffff8211156154ba576154b9613dcc565b5b602082029050602081019050919050565b60006154de6154d98461549f565b613e2c565b9050808382526020820190506020840283018581111561550157615500613fc8565b5b835b8181101561552a5780615516888261511d565b845260208401935050602081019050615503565b5050509392505050565b600082601f83011261554957615548613db1565b5b81356155598482602086016154cb565b91505092915050565b60008060006060848603121561557b5761557a613d71565b5b600061558986828701613d9c565b935050602084013567ffffffffffffffff8111156155aa576155a9613d76565b5b6155b686828701613ec9565b925050604084013567ffffffffffffffff8111156155d7576155d6613d76565b5b6155e386828701615534565b9150509250925092565b6000806040838503121561560457615603613d71565b5b600083013567ffffffffffffffff81111561562257615621613d76565b5b61562e85828601613ec9565b925050602083013567ffffffffffffffff81111561564f5761564e613d76565b5b61565b8582860161406c565b9150509250929050565b6000806040838503121561567c5761567b613d71565b5b600083013567ffffffffffffffff81111561569a57615699613d76565b5b6156a685828601613ec9565b925050602083013567ffffffffffffffff8111156156c7576156c6613d76565b5b6156d385828601613ec9565b9150509250929050565b600080604083850312156156f4576156f3613d71565b5b600083013567ffffffffffffffff81111561571257615711613d76565b5b61571e85828601613ec9565b925050602083013567ffffffffffffffff81111561573f5761573e613d76565b5b61574b85828601615534565b9150509250929050565b61575e81613ef7565b82525050565b60006020820190506157796000830184615755565b92915050565b600081905092915050565b6000615795826144b8565b61579f818561577f565b93506157af8185602086016144d4565b80840191505092915050565b60006157c7828461578a565b915081905092915050565b7f4e487b7100000000000000000000000000000000000000000000000000000000600052602260045260246000fd5b6000600282049050600182168061581957607f821691505b60208210810361582c5761582b6157d2565b5b50919050565b60008190508160005260206000209050919050565b60006020601f8301049050919050565b600082821b905092915050565b6000600883026158947fffffffffffffffffffffffffffffffffffffffffffffffffffffffffffffffff82615857565b61589e8683615857565b95508019841693508086168417925050509392505050565b6000819050919050565b60006158db6158d66158d184613d7b565b6158b6565b613d7b565b9050919050565b6000819050919050565b6158f5836158c0565b615909615901826158e2565b848454615864565b825550505050565b600090565b61591e615911565b6159298184846158ec565b505050565b5b8181101561594d57615942600082615916565b60018101905061592f565b5050565b601f8211156159925761596381615832565b61596c84615847565b8101602085101561597b578190505b61598f61598785615847565b83018261592e565b50505b505050565b600082821c905092915050565b60006159b560001984600802615997565b1980831691505092915050565b60006159ce83836159a4565b9150826002028217905092915050565b6159e782614aa4565b67ffffffffffffffff811115615a00576159ff613dcc565b5b615a0a8254615801565b615a15828285615951565b600060209050601f831160018114615a485760008415615a36578287015190505b615a4085826159c2565b865550615aa8565b601f198416615a5686615832565b60005b82811015615a7e57848901518255600182019150602085019450602081019050615a59565b86831015615a9b5784890151615a97601f8916826159a4565b8355505b6001600288020188555050505b505050505050565b6000615ac3615abe84613e47565b613e2c565b905082815260208101848484011115615adf57615ade613db6565b5b615aea8482856144d4565b509392505050565b600082601f830112615b0757615b06613db1565b5b8151615b17848260208601615ab0565b91505092915050565b600060208284031215615b3657615b35613d71565b5b600082015167ffffffffffffffff811115615b5457615b53613d76565b5b615b6084828501615af2565b91505092915050565b600081519050919050565b600082825260208201905092915050565b6000819050602082019050919050565b615b9e81613fcd565b82525050565b6000615bb08383615b95565b60208301905092915050565b6000602082019050919050565b6000615bd482615b69565b615bde8185615b74565b9350615be983615b85565b8060005b83811015615c1a578151615c018882615ba4565b9750615c0c83615bbc565b925050600181019050615bed565b5085935050505092915050565b60006020820190508181036000830152615c418184615bc9565b905092915050565b7f4e487b7100000000000000000000000000000000000000000000000000000000600052603260045260246000fd5b615c8181613fcd565b82525050565b6000602082019050615c9c6000830184615c78565b92915050565b6000615cae828561578a565b9150615cba828461578a565b91508190509392505050565b7f4e487b7100000000000000000000000000000000000000000000000000000000600052601160045260246000fd5b6000615d0082613d7b565b9150615d0b83613d7b565b9250828203905081811115615d2357615d22615cc6565b5b92915050565b7f2c00000000000000000000000000000000000000000000000000000000000000815250565b6000615d5b828461578a565b9150615d6682615d29565b60018201915081905092915050565b6000615d8082613d7b565b91507fffffffffffffffffffffffffffffffffffffffffffffffffffffffffffffffff8203615db257615db1615cc6565b5b600182019050919050565b7f5d00000000000000000000000000000000000000000000000000000000000000815250565b6000615def828461578a565b9150615dfa82615dbd565b60018201915081905092915050565b600081519050615e1881613d85565b92915050565b600060208284031215615e3457615e33613d71565b5b6000615e4284828501615e09565b91505092915050565b600080fd5b600080fd5b600060808284031215615e6b57615e6a615e4b565b5b615e756080613e2c565b9050600082015167ffffffffffffffff811115615e9557615e94615e50565b5b615ea184828501615af2565b6000830152506020615eb584828501615e09565b602083015250604082015167ffffffffffffffff811115615ed957615ed8615e50565b5b615ee584828501615af2565b604083015250606082015167ffffffffffffffff811115615f0957615f08615e50565b5b615f1584828501615af2565b60608301525092915050565b600060208284031215615f3757615f36613d71565b5b600082015167ffffffffffffffff811115615f5557615f54613d76565b5b615f6184828501615e55565b91505092915050565b600082825260208201905092915050565b6000615f8682614aa4565b615f908185615f6a565b9350615fa08185602086016144d4565b615fa981613dbb565b840191505092915050565b60006020820190508181036000830152615fce8184615f7b565b905092915050565b615fdf8161475d565b82525050565b6000602082019050615ffa6000830184615fd6565b92915050565b600081519050919050565b600082825260208201905092915050565b6000819050602082019050919050565b6160358161475d565b82525050565b6000616047838361602c565b60208301905092915050565b6000602082019050919050565b600061606b82616000565b616075818561600b565b93506160808361601c565b8060005b838110156160b1578151616098888261603b565b97506160a383616053565b925050600181019050616084565b5085935050505092915050565b600060208201905081810360008301526160d88184616060565b905092915050565b600081519050919050565b600082825260208201905092915050565b6000819050602082019050919050565b61611581613ef7565b82525050565b6000616127838361610c565b60208301905092915050565b6000602082019050919050565b600061614b826160e0565b61615581856160eb565b9350616160836160fc565b8060005b83811015616191578151616178888261611b565b975061618383616133565b925050600181019050616164565b5085935050505092915050565b600060208201905081810360008301526161b88184616140565b905092915050565b600081519050919050565b600082825260208201905092915050565b6000819050602082019050919050565b60006161f88383614ac0565b905092915050565b6000602082019050919050565b6000616218826161c0565b61622281856161cb565b935083602082028501616234856161dc565b8060005b85811015616270578484038952815161625185826161ec565b945061625c83616200565b925060208a01995050600181019050616238565b50829750879550505050505092915050565b6000602082019050818103600083015261629c818461620d565b905092915050565b6162ad81614a5a565b82525050565b60006020820190506162c860008301846162a4565b92915050565b600081519050919050565b600082825260208201905092915050565b6000819050602082019050919050565b600082825260208201905092915050565b6000616316826144b8565b61632081856162fa565b93506163308185602086016144d4565b61633981613dbb565b840191505092915050565b6000616350838361630b565b905092915050565b6000602082019050919050565b6000616370826162ce565b61637a81856162d9565b93508360208202850161638c856162ea565b8060005b858110156163c857848403895281516163a98582616344565b94506163b483616358565b925060208a01995050600181019050616390565b50829750879550505050505092915050565b600060208201905081810360008301526163f48184616365565b905092915050565b6009811061640d5761640c6149e3565b5b50565b600081905061641e826163fc565b919050565b600061642e82616410565b9050919050565b61643e81616423565b82525050565b60006020820190506164596000830184616435565b92915050565b60008151905061646e81615106565b92915050565b60006020828403121561648a57616489613d71565b5b60006164988482850161645f565b91505092915050565b600081519050919050565b600082825260208201905092915050565b6000819050602082019050919050565b60006164d98383614a66565b60208301905092915050565b6000602082019050919050565b60006164fd826164a1565b61650781856164ac565b9350616512836164bd565b8060005b8381101561654357815161652a88826164cd565b9750616535836164e5565b925050600181019050616516565b5085935050505092915050565b6000602082019050818103600083015261656a81846164f2565b905092915050565b7f242e000000000000000000000000000000000000000000000000000000000000815250565b7f2e00000000000000000000000000000000000000000000000000000000000000815250565b60006165c982616572565b6002820191506165d9828661578a565b91506165e482616598565b6001820191506165f4828561578a565b91506165ff82616598565b60018201915061660f828461578a565b9150819050949350505050565b60008190508160005260206000209050919050565b6000815461663e81615801565b61664881866144c3565b945060018216600081146166635760018114616679576166ac565b60ff1983168652811515602002860193506166ac565b6166828561661c565b60005b838110156166a457815481890152600182019150602081019050616685565b808801955050505b50505092915050565b600060608201905081810360008301526166cf81866144fe565b905081810360208301526166e38185616631565b905081810360408301526166f781846144fe565b9050949350505050565b7f2200000000000000000000000000000000000000000000000000000000000000815250565b600061673282616701565b600182019150616742828461578a565b915061674d82616701565b60018201915081905092915050565b6000604082019050818103600083015261677681856144fe565b9050818103602083015261678a81846144fe565b90509392505050565b7f5b5d000000000000000000000000000000000000000000000000000000000000815250565b60006167c5828461578a565b91506167d082616793565b6002820191508190509291505056fea2646970667358221220aff3035755879050ca61b626ed02adcedfbd0d3902b095dafb08ce945840248e64736f6c63430008130033","linkReferences":{}},"methodIdentifiers":{"get(string)":"693ec85e","get(uint256,string)":"805da4ad","getChainIds()":"1d776323","getRpcUrl()":"43ec8b6a","getRpcUrl(uint256)":"7df3ef12","resolveChainId(string)":"3f3a7588","set(string,address)":"a815ff15","set(string,address[])":"88c63d45","set(string,bool)":"ba0ff22c","set(string,bool[])":"fa3c074a","set(string,bytes)":"2b29c0fa","set(string,bytes32)":"2e3196a5","set(string,bytes32[])":"e6053250","set(string,bytes[])":"c91ca7ba","set(string,int256)":"2ef8ba74","set(string,int256[])":"de0fc9b3","set(string,string)":"e942b516","set(string,string[])":"59b39526","set(string,uint256)":"8a42ebe9","set(string,uint256[])":"7b8fed81","set(uint256,string,address)":"5eba0df0","set(uint256,string,address[])":"61141c97","set(uint256,string,bool)":"b3a64001","set(uint256,string,bool[])":"e298d00b","set(uint256,string,bytes)":"4d85ce80","set(uint256,string,bytes32)":"cf1cfa99","set(uint256,string,bytes32[])":"08f7b4b2","set(uint256,string,bytes[])":"93dbe6e0","set(uint256,string,int256)":"07d79d9a","set(uint256,string,int256[])":"8be19924","set(uint256,string,string)":"65560950","set(uint256,string,string[])":"cf72a2f3","set(uint256,string,uint256)":"22dc48fd","set(uint256,string,uint256[])":"db0075df","writeUpdatesBackToFile(bool)":"d6698dc4"},"id":7}