{"abi":[{"type":"constructor","inputs":[{"name":"_usdc","type":"address","internalType":"address"},{"name":"_platformWallet","type":"address","internalType":"address"},{"name":"_platformFee","type":"uint256","internalType":"uint256"}],"stateMutability":"nonpayable"},{"type":"function","name":"acceptAnswer","inputs":[{"name":"questionId","type":"uint256","internalType":"uint256"},{"name":"answerId","type":"uint256","internalType":"uint256"}],"outputs":[],"stateMutability":"nonpayable"},{"type":"function","name":"answerCount","inputs":[],"outputs":[{"name":"","type":"uint256","internalType":"uint256"}],"stateMutability":"view"},{"type":"function","name":"answers","inputs":[{"name":"","type":"uint256","internalType":"uint256"}],"outputs":[{"name":"id","type":"uint256","internalType":"uint256"},{"name":"questionId","type":"uint256","internalType":"uint256"},{"name":"responder","type":"address","internalType":"address"},{"name":"text","type":"string","internalType":"string"},{"name":"isAccepted","type":"bool","internalType":"bool"}],"stateMutability":"view"},{"type":"function","name":"getAnswers","inputs":[{"name":"questionId","type":"uint256","internalType":"uint256"}],"outputs":[{"name":"","type":"tuple[]","internalType":"struct BountyQnA.Answer[]","components":[{"name":"id","type":"uint256","internalType":"uint256"},{"name":"questionId","type":"uint256","internalType":"uint256"},{"name":"responder","type":"address","internalType":"address"},{"name":"text","type":"string","internalType":"string"},{"name":"isAccepted","type":"bool","internalType":"bool"}]}],"stateMutability":"view"},{"type":"function","name":"getTrustScore","inputs":[{"name":"responder","type":"address","internalType":"address"},{"name":"tag","type":"string","internalType":"string"}],"outputs":[{"name":"","type":"uint256","internalType":"uint256"}],"stateMutability":"view"},{"type":"function","name":"platformFee","inputs":[],"outputs":[{"name":"","type":"uint256","internalType":"uint256"}],"stateMutability":"view"},{"type":"function","name":"platformWallet","inputs":[],"outputs":[{"name":"","type":"address","internalType":"address"}],"stateMutability":"view"},{"type":"function","name":"postAnswer","inputs":[{"name":"questionId","type":"uint256","internalType":"uint256"},{"name":"text","type":"string","internalType":"string"}],"outputs":[],"stateMutability":"nonpayable"},{"type":"function","name":"postQuestion","inputs":[{"name":"text","type":"string","internalType":"string"},{"name":"tags","type":"string[]","internalType":"string[]"},{"name":"bounty","type":"uint256","internalType":"uint256"}],"outputs":[],"stateMutability":"nonpayable"},{"type":"function","name":"questionCount","inputs":[],"outputs":[{"name":"","type":"uint256","internalType":"uint256"}],"stateMutability":"view"},{"type":"function","name":"questions","inputs":[{"name":"","type":"uint256","internalType":"uint256"}],"outputs":[{"name":"id","type":"uint256","internalType":"uint256"},{"name":"asker","type":"address","internalType":"address"},{"name":"text","type":"string","internalType":"string"},{"name":"bounty","type":"uint256","internalType":"uint256"},{"name":"acceptedAnswerId","type":"uint256","internalType":"uint256"},{"name":"isClosed","type":"bool","internalType":"bool"}],"stateMutability":"view"},{"type":"function","name":"trustScore","inputs":[{"name":"","type":"address","internalType":"address"},{"name":"","type":"string","internalType":"string"}],"outputs":[{"name":"","type":"uint256","internalType":"uint256"}],"stateMutability":"view"},{"type":"function","name":"usdc","inputs":[],"outputs":[{"name":"","type":"address","internalType":"contract IERC20"}],"stateMutability":"view"},{"type":"event","name":"AnswerAccepted","inputs":[{"name":"answerId","type":"uint256","indexed":true,"internalType":"uint256"},{"name":"questionId","type":"uint256","indexed":true,"internalType":"uint256"}],"anonymous":false},{"type":"event","name":"AnswerPosted","inputs":[{"name":"answerId","type":"uint256","indexed":true,"internalType":"uint256"},{"name":"questionId","type":"uint256","indexed":true,"internalType":"uint256"},{"name":"responder","type":"address","indexed":true,"internalType":"address"}],"anonymous":false},{"type":"event","name":"QuestionPosted","inputs":[{"name":"questionId","type":"uint256","indexed":true,"internalType":"uint256"},{"name":"asker","type":"address","indexed":true,"internalType":"address"},{"name":"bounty","type":"uint256","indexed":false,"internalType":"uint256"}],"anonymous":false}],"bytecode":{"object":"0x60806040523480156200001157600080fd5b506040516200274a3803806200274a83398181016040528101906200003791906200016d565b826000806101000a81548173ffffffffffffffffffffffffffffffffffffffff021916908373ffffffffffffffffffffffffffffffffffffffff16021790555081600160006101000a81548173ffffffffffffffffffffffffffffffffffffffff021916908373ffffffffffffffffffffffffffffffffffffffff16021790555080600281905550505050620001c9565b600080fd5b600073ffffffffffffffffffffffffffffffffffffffff82169050919050565b6000620000fa82620000cd565b9050919050565b6200010c81620000ed565b81146200011857600080fd5b50565b6000815190506200012c8162000101565b92915050565b6000819050919050565b620001478162000132565b81146200015357600080fd5b50565b60008151905062000167816200013c565b92915050565b600080600060608486031215620001895762000188620000c8565b5b600062000199868287016200011b565b9350506020620001ac868287016200011b565b9250506040620001bf8682870162000156565b9150509250925092565b61257180620001d96000396000f3fe608060405234801561001057600080fd5b50600436106100cf5760003560e01c806331b1b9781161008c57806387a11dca1161006657806387a11dca14610231578063c921d66c1461024d578063ec89028614610269578063fa2af9da14610299576100cf565b806331b1b978146101c2578063351e1bd0146101f75780633e413bee14610213576100cf565b80630bed0502146100d45780631323443c146100f25780631468aa2c1461012257806317599cc5146101405780631e59e02a1461017457806326232a2e146101a4575b600080fd5b6100dc6102b7565b6040516100e991906112b9565b60405180910390f35b61010c6004803603810190610107919061148c565b6102bd565b60405161011991906112b9565b60405180910390f35b61012a6102f8565b60405161013791906112b9565b60405180910390f35b61015a60048036038101906101559190611514565b6102fe565b60405161016b9594939291906115ea565b60405180910390f35b61018e60048036038101906101899190611514565b6103e9565b60405161019b91906117f3565b60405180910390f35b6101ac610643565b6040516101b991906112b9565b60405180910390f35b6101dc60048036038101906101d79190611514565b610649565b6040516101ee96959493929190611815565b60405180910390f35b610211600480360381019061020c919061187d565b61073a565b005b61021b610c1d565b604051610228919061191c565b60405180910390f35b61024b60048036038101906102469190611a1d565b610c41565b005b61026760048036038101906102629190611aa8565b610ef0565b005b610283600480360381019061027e919061148c565b6110f3565b60405161029091906112b9565b60405180910390f35b6102a1611159565b6040516102ae9190611b04565b60405180910390f35b60045481565b600760205281600052604060002081805160208101820180518482526020830160208501208183528095505050505050600091509150505481565b60035481565b60066020528060005260406000206000915090508060000154908060010154908060020160009054906101000a900473ffffffffffffffffffffffffffffffffffffffff169080600301805461035390611b4e565b80601f016020809104026020016040519081016040528092919081815260200182805461037f90611b4e565b80156103cc5780601f106103a1576101008083540402835291602001916103cc565b820191906000526020600020905b8154815290600101906020018083116103af57829003601f168201915b5050505050908060040160009054906101000a900460ff16905085565b6060600080600190505b600454811161043b578360066000838152602001908152602001600020600101540361042857818061042490611bae565b9250505b808061043390611bae565b9150506103f3565b5060008167ffffffffffffffff81111561045857610457611361565b5b60405190808252806020026020018201604052801561049157816020015b61047e61117f565b8152602001906001900390816104765790505b509050600080600190505b6004548111610637578560066000838152602001908152602001600020600101540361062457600660008281526020019081526020016000206040518060a001604052908160008201548152602001600182015481526020016002820160009054906101000a900473ffffffffffffffffffffffffffffffffffffffff1673ffffffffffffffffffffffffffffffffffffffff1673ffffffffffffffffffffffffffffffffffffffff16815260200160038201805461055a90611b4e565b80601f016020809104026020016040519081016040528092919081815260200182805461058690611b4e565b80156105d35780601f106105a8576101008083540402835291602001916105d3565b820191906000526020600020905b8154815290600101906020018083116105b657829003601f168201915b505050505081526020016004820160009054906101000a900460ff16151515158152505083838151811061060a57610609611bf6565b5b6020026020010181905250818061062090611bae565b9250505b808061062f90611bae565b91505061049c565b50819350505050919050565b60025481565b60056020528060005260406000206000915090508060000154908060010160009054906101000a900473ffffffffffffffffffffffffffffffffffffffff169080600201805461069890611b4e565b80601f01602080910402602001604051908101604052809291908181526020018280546106c490611b4e565b80156107115780601f106106e657610100808354040283529160200191610711565b820191906000526020600020905b8154815290600101906020018083116106f457829003601f168201915b5050505050908060040154908060050154908060060160009054906101000a900460ff16905086565b600060056000848152602001908152602001600020905060006006600084815260200190815260200160002090508160010160009054906101000a900473ffffffffffffffffffffffffffffffffffffffff1673ffffffffffffffffffffffffffffffffffffffff163373ffffffffffffffffffffffffffffffffffffffff16146107fa576040517f08c379a00000000000000000000000000000000000000000000000000000000081526004016107f190611c71565b60405180910390fd5b8160060160009054906101000a900460ff161561084c576040517f08c379a000000000000000000000000000000000000000000000000000000000815260040161084390611cdd565b60405180910390fd5b83816001015414610892576040517f08c379a000000000000000000000000000000000000000000000000000000000815260040161088990611d6f565b60405180910390fd5b82826005018190555060018260060160006101000a81548160ff02191690831515021790555060018160040160006101000a81548160ff0219169083151502179055506000606460025484600401546108eb9190611d8f565b6108f59190611e00565b905060008184600401546109099190611e31565b905060008054906101000a900473ffffffffffffffffffffffffffffffffffffffff1673ffffffffffffffffffffffffffffffffffffffff1663a9059cbb8460020160009054906101000a900473ffffffffffffffffffffffffffffffffffffffff16836040518363ffffffff1660e01b815260040161098a929190611e65565b6020604051808303816000875af11580156109a9573d6000803e3d6000fd5b505050506040513d601f19601f820116820180604052508101906109cd9190611eba565b610a0c576040517f08c379a0000000000000000000000000000000000000000000000000000000008152600401610a0390611f33565b60405180910390fd5b60008054906101000a900473ffffffffffffffffffffffffffffffffffffffff1673ffffffffffffffffffffffffffffffffffffffff1663a9059cbb600160009054906101000a900473ffffffffffffffffffffffffffffffffffffffff16846040518363ffffffff1660e01b8152600401610a89929190611e65565b6020604051808303816000875af1158015610aa8573d6000803e3d6000fd5b505050506040513d601f19601f82011682018060405250810190610acc9190611eba565b610b0b576040517f08c379a0000000000000000000000000000000000000000000000000000000008152600401610b0290611f9f565b60405180910390fd5b60005b8460030180549050811015610be6576001600760008660020160009054906101000a900473ffffffffffffffffffffffffffffffffffffffff1673ffffffffffffffffffffffffffffffffffffffff1673ffffffffffffffffffffffffffffffffffffffff168152602001908152602001600020866003018381548110610b9857610b97611bf6565b5b90600052602060002001604051610baf9190612062565b90815260200160405180910390206000828254610bcc9190612079565b925050819055508080610bde90611bae565b915050610b0e565b5085857fa3731c1be8d463304394db7c896655429cdfbb4e480949d090b252da6013a39d60405160405180910390a3505050505050565b60008054906101000a900473ffffffffffffffffffffffffffffffffffffffff1681565b60008111610c84576040517f08c379a0000000000000000000000000000000000000000000000000000000008152600401610c7b906120f9565b60405180910390fd5b60008054906101000a900473ffffffffffffffffffffffffffffffffffffffff1673ffffffffffffffffffffffffffffffffffffffff166323b872dd3330846040518463ffffffff1660e01b8152600401610ce193929190612119565b6020604051808303816000875af1158015610d00573d6000803e3d6000fd5b505050506040513d601f19601f82011682018060405250810190610d249190611eba565b610d63576040517f08c379a0000000000000000000000000000000000000000000000000000000008152600401610d5a9061219c565b60405180910390fd5b60036000815480929190610d7690611bae565b91905055506040518060e0016040528060035481526020013373ffffffffffffffffffffffffffffffffffffffff16815260200184815260200183815260200182815260200160008152602001600015158152506005600060035481526020019081526020016000206000820151816000015560208201518160010160006101000a81548173ffffffffffffffffffffffffffffffffffffffff021916908373ffffffffffffffffffffffffffffffffffffffff1602179055506040820151816002019081610e459190612349565b506060820151816003019080519060200190610e629291906111c6565b506080820151816004015560a0820151816005015560c08201518160060160006101000a81548160ff0219169083151502179055509050503373ffffffffffffffffffffffffffffffffffffffff166003547fbbe160f3fa2c7bd2f0cfd65b4de421e4a2ef96d5eb9afa83fd9b985a3a5f5f5f83604051610ee391906112b9565b60405180910390a3505050565b600082118015610f0257506003548211155b610f41576040517f08c379a0000000000000000000000000000000000000000000000000000000008152600401610f3890612467565b60405180910390fd5b6005600083815260200190815260200160002060060160009054906101000a900460ff1615610fa5576040517f08c379a0000000000000000000000000000000000000000000000000000000008152600401610f9c906124d3565b60405180910390fd5b60046000815480929190610fb890611bae565b91905055506040518060a0016040528060045481526020018381526020013373ffffffffffffffffffffffffffffffffffffffff16815260200182815260200160001515815250600660006004548152602001908152602001600020600082015181600001556020820151816001015560408201518160020160006101000a81548173ffffffffffffffffffffffffffffffffffffffff021916908373ffffffffffffffffffffffffffffffffffffffff16021790555060608201518160030190816110849190612349565b5060808201518160040160006101000a81548160ff0219169083151502179055509050503373ffffffffffffffffffffffffffffffffffffffff16826004547f964e54a7e8b7511417d5a627b6471cfb7bc6c100a2bdfa074dcecf03f9edc0c760405160405180910390a45050565b6000600760008473ffffffffffffffffffffffffffffffffffffffff1673ffffffffffffffffffffffffffffffffffffffff168152602001908152602001600020826040516111429190612524565b908152602001604051809103902054905092915050565b600160009054906101000a900473ffffffffffffffffffffffffffffffffffffffff1681565b6040518060a001604052806000815260200160008152602001600073ffffffffffffffffffffffffffffffffffffffff168152602001606081526020016000151581525090565b82805482825590600052602060002090810192821561120e579160200282015b8281111561120d5782518290816111fd9190612349565b50916020019190600101906111e6565b5b50905061121b919061121f565b5090565b5b8082111561123f57600081816112369190611243565b50600101611220565b5090565b50805461124f90611b4e565b6000825580601f106112615750611280565b601f01602090049060005260206000209081019061127f9190611283565b5b50565b5b8082111561129c576000816000905550600101611284565b5090565b6000819050919050565b6112b3816112a0565b82525050565b60006020820190506112ce60008301846112aa565b92915050565b6000604051905090565b600080fd5b600080fd5b600073ffffffffffffffffffffffffffffffffffffffff82169050919050565b6000611313826112e8565b9050919050565b61132381611308565b811461132e57600080fd5b50565b6000813590506113408161131a565b92915050565b600080fd5b600080fd5b6000601f19601f8301169050919050565b7f4e487b7100000000000000000000000000000000000000000000000000000000600052604160045260246000fd5b61139982611350565b810181811067ffffffffffffffff821117156113b8576113b7611361565b5b80604052505050565b60006113cb6112d4565b90506113d78282611390565b919050565b600067ffffffffffffffff8211156113f7576113f6611361565b5b61140082611350565b9050602081019050919050565b82818337600083830152505050565b600061142f61142a846113dc565b6113c1565b90508281526020810184848401111561144b5761144a61134b565b5b61145684828561140d565b509392505050565b600082601f83011261147357611472611346565b5b813561148384826020860161141c565b91505092915050565b600080604083850312156114a3576114a26112de565b5b60006114b185828601611331565b925050602083013567ffffffffffffffff8111156114d2576114d16112e3565b5b6114de8582860161145e565b9150509250929050565b6114f1816112a0565b81146114fc57600080fd5b50565b60008135905061150e816114e8565b92915050565b60006020828403121561152a576115296112de565b5b6000611538848285016114ff565b91505092915050565b61154a81611308565b82525050565b600081519050919050565b600082825260208201905092915050565b60005b8381101561158a57808201518184015260208101905061156f565b60008484015250505050565b60006115a182611550565b6115ab818561155b565b93506115bb81856020860161156c565b6115c481611350565b840191505092915050565b60008115159050919050565b6115e4816115cf565b82525050565b600060a0820190506115ff60008301886112aa565b61160c60208301876112aa565b6116196040830186611541565b818103606083015261162b8185611596565b905061163a60808301846115db565b9695505050505050565b600081519050919050565b600082825260208201905092915050565b6000819050602082019050919050565b611679816112a0565b82525050565b61168881611308565b82525050565b600082825260208201905092915050565b60006116aa82611550565b6116b4818561168e565b93506116c481856020860161156c565b6116cd81611350565b840191505092915050565b6116e1816115cf565b82525050565b600060a0830160008301516116ff6000860182611670565b5060208301516117126020860182611670565b506040830151611725604086018261167f565b506060830151848203606086015261173d828261169f565b915050608083015161175260808601826116d8565b508091505092915050565b600061176983836116e7565b905092915050565b6000602082019050919050565b600061178982611644565b611793818561164f565b9350836020820285016117a585611660565b8060005b858110156117e157848403895281516117c2858261175d565b94506117cd83611771565b925060208a019950506001810190506117a9565b50829750879550505050505092915050565b6000602082019050818103600083015261180d818461177e565b905092915050565b600060c08201905061182a60008301896112aa565b6118376020830188611541565b81810360408301526118498187611596565b905061185860608301866112aa565b61186560808301856112aa565b61187260a08301846115db565b979650505050505050565b60008060408385031215611894576118936112de565b5b60006118a2858286016114ff565b92505060206118b3858286016114ff565b9150509250929050565b6000819050919050565b60006118e26118dd6118d8846112e8565b6118bd565b6112e8565b9050919050565b60006118f4826118c7565b9050919050565b6000611906826118e9565b9050919050565b611916816118fb565b82525050565b6000602082019050611931600083018461190d565b92915050565b600067ffffffffffffffff82111561195257611951611361565b5b602082029050602081019050919050565b600080fd5b600061197b61197684611937565b6113c1565b9050808382526020820190506020840283018581111561199e5761199d611963565b5b835b818110156119e557803567ffffffffffffffff8111156119c3576119c2611346565b5b8086016119d0898261145e565b855260208501945050506020810190506119a0565b5050509392505050565b600082601f830112611a0457611a03611346565b5b8135611a14848260208601611968565b91505092915050565b600080600060608486031215611a3657611a356112de565b5b600084013567ffffffffffffffff811115611a5457611a536112e3565b5b611a608682870161145e565b935050602084013567ffffffffffffffff811115611a8157611a806112e3565b5b611a8d868287016119ef565b9250506040611a9e868287016114ff565b9150509250925092565b60008060408385031215611abf57611abe6112de565b5b6000611acd858286016114ff565b925050602083013567ffffffffffffffff811115611aee57611aed6112e3565b5b611afa8582860161145e565b9150509250929050565b6000602082019050611b196000830184611541565b92915050565b7f4e487b7100000000000000000000000000000000000000000000000000000000600052602260045260246000fd5b60006002820490506001821680611b6657607f821691505b602082108103611b7957611b78611b1f565b5b50919050565b7f4e487b7100000000000000000000000000000000000000000000000000000000600052601160045260246000fd5b6000611bb9826112a0565b91507fffffffffffffffffffffffffffffffffffffffffffffffffffffffffffffffff8203611beb57611bea611b7f565b5b600182019050919050565b7f4e487b7100000000000000000000000000000000000000000000000000000000600052603260045260246000fd5b7f4f6e6c792061736b65722063616e206163636570740000000000000000000000600082015250565b6000611c5b60158361155b565b9150611c6682611c25565b602082019050919050565b60006020820190508181036000830152611c8a81611c4e565b9050919050565b7f5175657374696f6e20616c726561647920636c6f736564000000000000000000600082015250565b6000611cc760178361155b565b9150611cd282611c91565b602082019050919050565b60006020820190508181036000830152611cf681611cba565b9050919050565b7f416e7377657220646f6573206e6f742062656c6f6e6720746f2071756573746960008201527f6f6e000000000000000000000000000000000000000000000000000000000000602082015250565b6000611d5960228361155b565b9150611d6482611cfd565b604082019050919050565b60006020820190508181036000830152611d8881611d4c565b9050919050565b6000611d9a826112a0565b9150611da5836112a0565b9250828202611db3816112a0565b91508282048414831517611dca57611dc9611b7f565b5b5092915050565b7f4e487b7100000000000000000000000000000000000000000000000000000000600052601260045260246000fd5b6000611e0b826112a0565b9150611e16836112a0565b925082611e2657611e25611dd1565b5b828204905092915050565b6000611e3c826112a0565b9150611e47836112a0565b9250828203905081811115611e5f57611e5e611b7f565b5b92915050565b6000604082019050611e7a6000830185611541565b611e8760208301846112aa565b9392505050565b611e97816115cf565b8114611ea257600080fd5b50565b600081519050611eb481611e8e565b92915050565b600060208284031215611ed057611ecf6112de565b5b6000611ede84828501611ea5565b91505092915050565b7f55534443207472616e7366657220746f2077696e6e6572206661696c65640000600082015250565b6000611f1d601e8361155b565b9150611f2882611ee7565b602082019050919050565b60006020820190508181036000830152611f4c81611f10565b9050919050565b7f55534443207472616e7366657220746f20706c6174666f726d206661696c6564600082015250565b6000611f8960208361155b565b9150611f9482611f53565b602082019050919050565b60006020820190508181036000830152611fb881611f7c565b9050919050565b600081905092915050565b60008190508160005260206000209050919050565b60008154611fec81611b4e565b611ff68186611fbf565b94506001821660008114612011576001811461202657612059565b60ff1983168652811515820286019350612059565b61202f85611fca565b60005b8381101561205157815481890152600182019150602081019050612032565b838801955050505b50505092915050565b600061206e8284611fdf565b915081905092915050565b6000612084826112a0565b915061208f836112a0565b92508282019050808211156120a7576120a6611b7f565b5b92915050565b7f426f756e7479206d757374206265203e20300000000000000000000000000000600082015250565b60006120e360128361155b565b91506120ee826120ad565b602082019050919050565b60006020820190508181036000830152612112816120d6565b9050919050565b600060608201905061212e6000830186611541565b61213b6020830185611541565b61214860408301846112aa565b949350505050565b7f55534443207472616e73666572206661696c6564000000000000000000000000600082015250565b600061218660148361155b565b915061219182612150565b602082019050919050565b600060208201905081810360008301526121b581612179565b9050919050565b60006020601f8301049050919050565b600082821b905092915050565b6000600883026122097fffffffffffffffffffffffffffffffffffffffffffffffffffffffffffffffff826121cc565b61221386836121cc565b95508019841693508086168417925050509392505050565b600061224661224161223c846112a0565b6118bd565b6112a0565b9050919050565b6000819050919050565b6122608361222b565b61227461226c8261224d565b8484546121d9565b825550505050565b600090565b61228961227c565b612294818484612257565b505050565b5b818110156122b8576122ad600082612281565b60018101905061229a565b5050565b601f8211156122fd576122ce81611fca565b6122d7846121bc565b810160208510156122e6578190505b6122fa6122f2856121bc565b830182612299565b50505b505050565b600082821c905092915050565b600061232060001984600802612302565b1980831691505092915050565b6000612339838361230f565b9150826002028217905092915050565b61235282611550565b67ffffffffffffffff81111561236b5761236a611361565b5b6123758254611b4e565b6123808282856122bc565b600060209050601f8311600181146123b357600084156123a1578287015190505b6123ab858261232d565b865550612413565b601f1984166123c186611fca565b60005b828110156123e9578489015182556001820191506020850194506020810190506123c4565b868310156124065784890151612402601f89168261230f565b8355505b6001600288020188555050505b505050505050565b7f496e76616c6964207175657374696f6e49640000000000000000000000000000600082015250565b600061245160128361155b565b915061245c8261241b565b602082019050919050565b6000602082019050818103600083015261248081612444565b9050919050565b7f5175657374696f6e20697320636c6f7365640000000000000000000000000000600082015250565b60006124bd60128361155b565b91506124c882612487565b602082019050919050565b600060208201905081810360008301526124ec816124b0565b9050919050565b60006124fe82611550565b6125088185611fbf565b935061251881856020860161156c565b80840191505092915050565b600061253082846124f3565b91508190509291505056fea26469706673582212201f49e960f548fa600dc6730371ba90ba5cda134421aa1fd95f536cb25f96001064736f6c63430008130033","linkReferences":{}},"methodIdentifiers":{"acceptAnswer(uint256,uint256)":"351e1bd0","answerCount()":"0bed0502","answers(uint256)":"17599cc5","getAnswers(uint256)":"1e59e02a","getTrustScore(address,string)":"ec890286","platformFee()":"26232a2e","platformWallet()":"fa2af9da","postAnswer(uint256,string)":"c921d66c","postQuestion(string,string[],uint256)":"87a11dca","questionCount()":"1468aa2c","questions(uint256)":"31b1b978","trustScore(address,string)":"1323443c","usdc()":"3e413bee"},"id":50}